:020000021000EC
:10C000000000012019C2010001C2010003C20100A9
:10C0100005C2010007C2010009C2010000000000C2
:10C020000000000000000000000000000BC2010042
:10C030000DC20100000000000FC2010011C201008A
:10C04000796E020013C20100197402008186020099
:10C050009186020013C20100C172020085810200B4
:10C0600013C20100797702008977020013C2010030
:10C0700013C2010013C2010013C2010013C2010068
:10C08000F97A0200D9A3020013C2010013C2010011
:10C0900075A4020013C20100158D0200DD8A0200A2
:10C0A00013C2010013C2010013C2010013C2010038
:10C0B00013C2010013C201000000000000000000D4
:10C0C00013C2010013C2010013C201000D7402006B
:10C0D00013C2010013C2010013C2010000000000DE
:10C0E0000000000000000000000000000000000050
:10C0F0000000000000000000000000000000000040
:10C10000000000000000000000000000000000002F
:10C11000000000000000000000000000000000001F
:10C12000000000000000000000000000000000000F
:10C1300000000000000000000000000000000000FF
:10C1400000000000000000000000000000000000EF
:10C1500000000000000000000000000000000000DF
:10C1600000000000000000000000000000000000CF
:10C1700000000000000000000000000000000000BF
:10C1800000000000000000000000000000000000AF
:10C19000000000000000000000000000000000009F
:10C1A000000000000000000000000000000000008F
:10C1B000000000000000000000000000000000007F
:10C1C000000000000000000000000000000000006F
:10C1D000000000000000000000000000000000005F
:10C1E000000000000000000000000000000000004F
:10C1F000000000000000000000000000000000003F
:10C20000FEE7FEE7FEE7FEE7FEE7FEE7FEE7FEE706
:10C21000FEE7FEE700F002B8FFF7FCBF0F484FF063
:10C220000701884385460E4880470E48016841F45F
:10C2300070010160BFF34F8FBFF36F8F00F01AB82A
:10C2400009480A490A4A884207D0521A05D0037899
:10C2500001300B700131013AF9D170470000012023
:10C26000CDCE020088ED00E0BC9A0300D032002061
:10C27000E4320020354936480A1A02D00722914399
:10C280008D46344934480A1A06D00722914381F377
:10C290000988022282F3148830483149314A00F07B
:10C2A00044F831483149324A00F03FF831483249C8
:10C2B000324A00F03AF832483249334A00F035F851
:10C2C00032483349334A00F030F833483349344A6E
:10C2D00000F02BF833483449344A00F026F834484B
:10C2E0003449002200F02CF833483449002200F091
:10C2F00027F833483349091A082902DB0022026073
:10C300004160314A90471F481F49884205D0026862
:10C31000043003B4904703BCF7E700208646EC46A0
:10C3200000200021294A9047FEE7884207D0521A90
:10C3300005D0037801300B700131013AF9D1704713
:10C34000884202D002700130FAE7704700000120F5
:10C3500000F00020A0D60020A0D60020583804000D
:10C36000E43200208C3C0020D0C30100D0C3010087
:10C370002098030058380400E4320020E432002002
:10C38000D09A0300D09A0300D09A0300D09A0300F9
:10C39000D09A0300D09A0300D09A0300D09A0300E9
:10C3A00057380400004204008C3C00208C3C0020E4
:10C3B0008C3C002098CE002098CE00209CCE0020FF
:10C3C0009CCE00209CD6002041C2010015FD01003A
:10C3D00077DF70477047000038B5204B20491D7843
:10C3E000204C214A6160012D0CBF002304230B70F7
:10C3F0001E4BC4F8A4301E4B23669A604FF0110206
:10C400009A8008BF05204FF0020218BF0420227056
:10C41000E070CDB1012D04D1164B23650423A4F89F
:10C420004C3015482C2200211CF030FE012384F8EA
:10C430007C3075B19D4206D1C823C4F888304FF4D2
:10C440004873C4F88C3038BD0C4B2365A4F84C20DD
:10C45000E7E76423C4F88830B423F2E7E43200202D
:10C460003C3E0020983C0020D09A0300D5C3010038
:10C470008C3C0020EE320020103D0020E6320020EF
:10C4800008B5FFF7A9FF0C490C4803F0A0FF08B15D
:10C490000DF028FF0A4B93F90020084B012093F878
:10C4A0005410FFF795FF08B10DF01CFFBDE80840E0
:10C4B0000248012103F088BF983C0020443D002041
:10C4C0003C3E002008B5042002F086FDBDE808408F
:10C4D0000148032103F0EBBF443D00202DE9F84360
:10C4E000194B01221A70FFF777FF184A1848A2F17A
:10C4F0003C0104F010F908B10DF0F4FE154E164F92
:10C50000DFF84C800F2546F0010697F9002098F8D7
:10C5100054100120FFF75CFF4FF0640904464FF40C
:10C520007A40B047B9F10109F9D1013D15F0FF0595
:10C5300004D12CB120460DF0D5FE01E0002CE4D151
:10C54000BDE8F843FFF7BEBFE4320020D43C002032
:10C55000443D0020F09A03003C3E0020A8DF7047D5
:10C56000ACDF7047AEDF704762DF70472DE9F04304
:10C5700089B006460C4690460021142203A81F46A7
:10C58000DDF84090134D1CF081FD13483389009372
:10C590002D1AED0814F80C3F104A114904962D0489
:10C5A00045F003000DF029FD204604F0E8FB58B1EA
:10C5B000012389F800308DF80C807368002103A8EE
:10C5C000984709B0BDE8F08389F800008DF80C7039
:10C5D000F3E700BF9499030014990300979C0300AC
:10C5E000F69A030037B513460022ADF80220ADF8E5
:10C5F000001001906A4619464FF6FF70FFF7B0FF32
:10C60000054668B10EF022FF074C084A0849034668
:10C610000848241AE408240444F001000DF0E3FC67
:10C62000284603B030BD00BF949903008A9C0300E4
:10C63000179B0300149903002DE9F0412C4B86B0A1
:10C6400002AA05460F4603F1100C164618685968F1
:10C65000144603C4083363452246F7D1002D45D064
:10C66000002F43D0234BFA681A60234BD7F8108071
:10C67000C3F800803B686B6029463046FFF774FFC3
:10C68000044678BB2A4601A912F8023B8DF8063011
:10C6900001204FF6F073ADF80430FFF75FFF04465A
:10C6A00000BB164E7B68B3603B89F380C6F84880B8
:10C6B00005F10C0705F13C082B78B37068883A4601
:10C6C000314604F073FB08B10DF00CFE0837474506
:10C6D00006F12006F0D10A4B00221A60BFF35F8FEB
:10C6E0000EF0CEFE204606B0BDE8F0810E24F9E73C
:10C6F000659C0300583F00205C3F00200033002071
:10C70000603F00202DE9F04700242A4E88B00746FC
:10C71000A046A146284B1B68CDE9029953B10E25CE
:10C720000134E4B2042C06F11406F3D1284608B013
:10C73000BDE8F087304610F05BFB02460028EED1E2
:10C7400002A9304610F05BFB032C2DD0012C2DD01C
:10C7500074B3022C0CBF0123FF2307EBC303BDF806
:10C760000C209B89ADF810300DF106030693388933
:10C77000029BADF806204FF0010A04A9CDF8138002
:10C780008DF817808DF812A00793FFF7EBFE1328A2
:10C79000054605D1514608480EF0A7F9BFF35F8F53
:10C7A00002980EF02DFFBBE72346D6E70423D4E71B
:10C7B0000523D2E7CC9C0300603F0020F7B5032897
:10C7C0004FF00007CDE900770E46144602D90E203F
:10C7D00003B0F0BD0029FAD0002AF8D0104B142580
:10C7E00005FB0035284610F08FFA38B13A46694605
:10C7F000284610F004FB00980EF002FF01212046AD
:10C800000EF0D6FE00900028E1D031462246ADF869
:10C8100004401CF065FA6946284610F081FAD7E713
:10C82000CC9C03000B46114682891846FFF7DABEFE
:10C830007047000037B50A4C04250022694620469F
:10C8400010F0DDFA40B1204610F0BFFA013D04F1CE
:10C850001404F2D103B030BD00980EF0D1FEECE725
:10C86000CC9C030007B501910421828B0DEB0100E4
:10C87000FFF7B8FE03B05DF804FB000070B5054695
:10C880008CB00C4601B168B9824B8348834A844915
:10C890000095C01AC0080004234640F001000DF0C6
:10C8A000ACFB24E01422002102A81CF0EFFB2B8833
:10C8B00003941B2B12D80F2B19D9103B0B2B16D816
:10C8C000DFE813F01F0028008B001500150015008D
:10C8D0001500150015001500CB002800552B00F0A1
:10C8E000A28006D83A2B00F0AB80502B26D00CB09B
:10C8F00070BD572BFBD1BFF35F8F6A4B00221A60CC
:10C90000F5E7AB882381684B1B6820461968FFF761
:10C91000A9FFF0E74FF6FF732381644B00211960F4
:10C92000998002238DF8083002A863689847012196
:10C930005C480EF0DAF8BFF35F8FD8E714220021CD
:10C9400007A81CF0A3FBAB88EA882381A38908947D
:10C950009A420ED12B8A002BC9D005228DF81C20BB
:10C9600005F112028DF82C300A926368002107A8A5
:10C9700098472B8A022BBAD1EB88228B9A4205F179
:10C98000060612D14A4B1B6833B1474B1B681BB1DB
:10C9900019682046FFF766FF464B009306220723DF
:10C9A00031462046FFF7E2FDA1E7228D9A4204D1ED
:10C9B000414B009308220923F2E7228E9A4204D1C8
:10C9C0003E4B00930A220B23EAE7228F9A428ED134
:10C9D0003B4B00930C220D23E2E72E4B2E4CE41A26
:10C9E000E40804F02BF8240444F003040346354A19
:10C9F000354920460DF0F7FA6B892A8940F2E24169
:10CA00004B434A43E9890A2671430191A989009160
:10CA10004FF47A702D49B3FBF0F3B2FBF0F22046ED
:10CA20000DF0F7FA63E71B4B1B481C4A2849C01A54
:10CA3000C0080004AB8840F003000DF0D4FA56E7BC
:10CA4000144B1548154A2349C01AC0086B89009336
:10CA50000004AB8840F0030021E70E4B0E4DED1AA9
:10CA6000ED0803F0EBFF2D0445F00305154A1649C8
:10CA7000034628460DF0B7FA01238DF8083002A8C6
:10CA8000636800219847054A134928460DF0A2FA29
:10CA90002DE700BF1499030094990300B69C03008E
:10CAA0001F9B0300603F00205C3F0020503F0020A0
:10CAB000583F0020513F0020533F0020543F0020AA
:10CAC000553F0020759C03004F9B03006E9B0300A5
:10CAD000D69B0300069C03003A9C03000DF002BCA9
:10CAE00007B501460190054809F0A0FF01990448E7
:10CAF00003B05DF804EB06F0BDB900BF643F002051
:10CB00000044002037B5037804461BB1032B3FD007
:10CB100003B030BD051D418823482A4606F02BFA94
:10CB200008B10DF0DFFB60880DF1060107F078FF1A
:10CB300008B10DF0D7FB76221C4800211CF0A6FAA4
:10CB40001B4B2A46143452F8041B43F8041BA24220
:10CB5000F9D112881A80174B01221A70164B1B78D4
:10CB60006BB11249BDF806000023EC2208F074F8FE
:10CB7000862801D10FF026FD08B10DF0B3FB0A485D
:10CB8000012106F041F90028C2D00DF0ABFBBFE750
:10CB9000094A4188094800231370064A137003B0FC
:10CBA000BDE8304004F0CABD004400206C440020C1
:10CBB0007644002024440020CC400020D8330020BC
:10CBC0000DF090BB08B50388102B0AD0112B07D1AC
:10CBD000094B81889A89914202D14FF6FF729A815E
:10CBE00008BD8188054805F0FBFF0028F8D0BDE8A6
:10CBF00008400DF077BB00BF643F0020584500207F
:10CC000038B50E4D2B790446BBB90D480D4B1B1A98
:10CC1000DB081B0443F003006CB10B490DF0D6F99F
:10CC200029680A4884F001020AF092F828B1BDE8A8
:10CC300038400DF057BB0649F0E738BD3C440020B2
:10CC4000149903009C9903001C9D0300643F00207D
:10CC5000389D0300F0B5057895B0044625B1022D46
:10CC600000F0848015B0F0BD80884FF6FF739842C5
:10CC7000F8D0EC234E49019301AA07F0B4FF052830
:10CC80001AD161884B482A4606F075F908B10DF0B3
:10CC900029FB494B494800211970494B4FF4BA62AE
:10CCA00019701CF0F3F96188444804F047FD00282E
:10CCB000D8D00DF017FBD5E708B10DF013FB414BB1
:10CCC00041484249C01AC008000440F003000DF07A
:10CCD0007DF93F4B02AD03F110072A4618685968E9
:10CCE0002E4603C60833BB423546F7D11B88338036
:10CCF0006188304806F03FF908B10DF0F3FA2D488D
:10CD0000012106F081F808B10DF0ECFA284BD3F8B8
:10CD10008000D3F8841009AA03C2B3F888101180E8
:10CD2000D3F89220CDF82E20D3F89620CDF83220DB
:10CD3000B3F89A20ADF83620B3F89C20ADF838202F
:10CD4000D3F8A420CDF83E20D3F8A820CDF8422077
:10CD5000B3F8AC20ADF84620B3F8AE3061881D487A
:10CD6000ADF8483007AA0AF028F8A0E71148428930
:10CD7000002A7FF477AF618806F0FDF808B10DF066
:10CD8000B1FA0D4B0D48002119700D4B4FF4BA62EA
:10CD900019701CF07BF96188084804F0CFFC00286A
:10CDA0003FF460AF15B0BDE8F0400DF09BBA00BF96
:10CDB0006C44002000440020CC400020D8330020E8
:10CDC00024440020149903009C990300549D0300FF
:10CDD00076440020643F002007B5064B0093684668
:10CDE000054B019304F06CFC08B10DF07BFA03B025
:10CDF0005DF804FBE1CA0100C03300202DE9F84FC3
:10CE000090F80690B9F1010F074629D16A4B6B4C97
:10CE100002686B496B4DE41AE408240444F00304EF
:10CE200020460DF0D7F8002367494FF0FF32204627
:10CE30000DF0D9F83B79ABB1022B32D0614E634F84
:10CE400000253379002B40F0B48033682A463946F8
:10CE5000204601350DF0C7F8052D06F10806F0D182
:10CE6000BDE8F88F5A4B1B6803B1984759495A4E91
:10CE70000B7805220133B3FBF2F202EB82029B1A1C
:10CE80003A6845F8332005EBC3050B700021297182
:10CE900095E8030086E80300504920460DF0A3F80A
:10CEA000CCE7DFF8308198F8003005EBC302167943
:10CEB00056BB55F833303A68934226D11A46484952
:10CEC00020460DF090F898F800303A684549204621
:10CED0000DF089F898F8003005EBC302013B82F8A9
:10CEE0000490052293FBF2F202EB82029B1A88F86F
:10CEF0000030DBB205EBC30595E80300364A82E853
:10CF0000030039490246C8E70026DFF8D4A0DFF85D
:10CF1000D4B005EBC60999F80430E3B955F83630BA
:10CF20003A68934217D11A46514620460DF05BF8F5
:10CF3000012355F8362089F80430594633462046F7
:10CF40000DF051F8244A98F800301268274920461D
:10CF50000DF049F805260136042EDADD05261E4FB0
:10CF6000DFF88CA0B14698F8002005EBC2031B79CE
:10CF7000002B3FF463AF013A92FBF9F303EB830319
:10CF8000D21AD2B2013A92FBF9F303EB8303D21A1D
:10CF900088F80020D2B205EBC20393E8030087E8CB
:10CFA00003000346514620460DF01DF8013EDAD13C
:10CFB00044E700234AE700BF149903009C9903004B
:10CFC000779D030044440020879D03001D9E0300BD
:10CFD00078450020FC4300203C4400208E9D030047
:10CFE000A79D0300C59D0300EB9D0300E39D030087
:10CFF0000E9E030037B503780446062B72D8DFE88F
:10D0000013F00700710073007100CA00F100010104
:10D01000418800F14002914809F0CFFE08B10DF0BF
:10D0200061F960880DF1060107F0FAFC08B10DF016
:10D0300059F98B4D76220021A8181CF027F804F12D
:10D04000480303CB1B88A5F88830D4F85230C5F8C4
:10D050009230D4F85630C5F89630B4F85A30A5F866
:10D060009A30B4F85C30A5F89C30D4F86230C5F83A
:10D07000A430D4F86630C5F8A830B4F86A30A5F802
:10D08000AC30B4F86C30A5F8AE30764BC5F8800003
:10D0900001221A70744BC5F884101B786BB1BDF86F
:10D0A00006000023EC22294607F0D6FD862801D190
:10D0B0000FF088FA08B10DF015F96C4D642445F0B5
:10D0C00001054FF47A40A847013CFAD1634809F0C2
:10D0D000E3FD08B10DF006F9604809F0F7FD08B16D
:10D0E0000DF000F903B030BDD0E90101604D614C95
:10D0F00085E8030060486149241AE408240444F0E8
:10D10000030420460CF062FF5D4B2A795D4953F819
:10D11000222020460CF05EFF5B4BAA795B4953F856
:10D12000222020460CF056FFEA79594920460CF09F
:10D1300051FF2A68574920460CF04CFF56492046BB
:10D140000CF044FF6B79DB0703D5544920460CF003
:10D150003DFF6B79980703D5514920460CF036FF07
:10D160006B79590703D54F4920460CF02FFF6B7997
:10D170001A0703D54C4920460CF028FF6B79DB06D3
:10D1800003D54A4920460CF021FF394803B0BDE8D9
:10D190003040FFF733BE103494E80700444B354C61
:10D1A00083E807003448241AE4081888414B240413
:10D1B00044F0030468B1104653F821500CF078FD98
:10D1C0003D4903462A46204603B0BDE830400CF0F6
:10D1D0000ABF53F821203949204603B0BDE830404A
:10D1E0000CF0F8BE244B2348C01AC008238A000460
:10D1F00040F003001BB1A369314A2F49E4E7304AEC
:10D200002E49EAE78389A3F5D073032B3FF66AAF73
:10D21000DFE803F0020F161D1648174B2949C01A04
:10D22000C008000440F0030003B0BDE830400CF03B
:10D23000CDBE1048104B2449C01AC0080004F1E7C5
:10D240000C480D4B2149C01AC0080004EAE7094800
:10D25000094B1F49C01AC0080004E3E7643F0020DF
:10D260006C440020CC4000202444002030A1030066
:10D27000344400209C99030014990300399E030054
:10D2800088A10300489E030058A10300589E030094
:10D29000689E0300789E0300889E03008F9E030013
:10D2A000979E0300A29E0300B09E0300C19E030050
:10D2B0002844002038A10300D29E0300D99E030019
:10D2C000E39E0300F09E0300349F0300769F03005B
:10D2D000CB9F030030B5514B8FB018600024504BEA
:10D2E00050480D940AA9CDE90B440A9305F056FC69
:10D2F00008B10CF0F7FF4C4B08944C484C4C07938A
:10D3000007A9099405F060FD08B10CF0EBFF0021BE
:10D31000484A494806912023CDE9041109F0F0FC60
:10D3200008B10CF0DFFF454A43482023002109F0F3
:10D33000FAFC08B10CF0D6FF414A3F4820230121F6
:10D3400009F0DEFC08B10CF0CDFF3E4A3A4820233C
:10D35000032109F0D5FC08B10CF0C4FF3A4A364865
:10D360002023022109F0CCFC08B10CF0BBFF374AA6
:10D3700031482023042109F0C3FC08B10CF0B2FFAE
:10D38000334A2D482023052109F0BAFC08B10CF0DE
:10D39000A9FF304A28482023062109F0B1FC08B132
:10D3A0000CF0A0FF2C4A24482023072109F0A8FCF8
:10D3B00008B10CF097FF294B0493294B1E4804A990
:10D3C000CDE9053409F018FC1948264C0BF068FE2D
:10D3D000254BE41A0546E4080EF01AF8240444F03C
:10D3E0000104014620460CF0F1FD01A91F481BF085
:10D3F0001FFB014620460CF0E9FD15B128460CF054
:10D4000071FF1B4A012313711A4A137113731375A9
:10D41000137782F824300FB030BD00BF784500206C
:10D42000C1CB01005845002005CB0100004400207D
:10D43000C0330020CD400020643F00200D4100207B
:10D44000CD4100202D410020AD4100204D41002064
:10D45000ED4000208D4100206D410020F5CF0100FE
:10D46000DDCA01009C9903001499030014A0030075
:10D470003C44002044440020012801D1FFF7C0BBF8
:10D48000022801D10020F9E770470000024B18790B
:10D4900080F00100704700BF3C44002070470CF052
:10D4A00021BF0000014B1880704700BFA839002041
:10D4B0002DE9F043254C93B014220021201D1BF0D0
:10D4C000E5FD4FF481730225032740F2022640F266
:10D4D000011863814FF0010940F20313002140223B
:10D4E00002A863822780A4F80280A680A571278104
:10D4F000A681A573A4F81090A682A5751BF0C6FDA1
:10D50000134B0093134B01938823ADF82430124B37
:10D51000089312488DF809904FF0023369468DF850
:10D520000A700394ADF830808DF833708DF82C506C
:10D530008DF834500F93ADF8406005F0DBF808B17A
:10D540000CF0D0FE13B0BDE8F08300BF7C45002096
:10D550009DD401009FD401003C3B0020AC39002049
:10D560001FB50E4B8DF80F001B8800930C480DF172
:10D570000F030122022105F09BFA68B10DF066FF4E
:10D58000084C094A094903460948241AE4082404B6
:10D5900044F001000CF027FD04B010BDA8390020B4
:10D5A000AC39002064990300D0A10300A8A10300B6
:10D5B000149903007FB5044607F0F8FF204607F0F2
:10D5C000D3FD204607F0D2FE6049608807F01AFAC2
:10D5D0005F4B1B680BB12046984723785A1E0B2AD5
:10D5E00000F2AA80DFE802F0061262A8A875A83F40
:10D5F000A8A8A8325748584B584A5949C01AC008D9
:10D60000000440F003000CF0E5FC17E0608803A97B
:10D6100007F0FCF908B10CF065FE60884D4D03F091
:10D62000D7FA02464C48237A00932D1AED082D04B0
:10D6300063884C4945F003000CF0DFFC204607F0FE
:10D64000D9FF0CF06FFB0028FBD173E0BFF34F8FC5
:10D650004549464BCA6802F4E0621343CB60BFF30E
:10D660004F8F00BFFDE7237CDB07E7D5237A072B2D
:10D67000E4D103F0E3F9374D374BED1AED080DF027
:10D68000E5FE2D0445F003050346344A3849284693
:10D690000CF0A9FCA08807F077FC0DF0D7FE2F4A0C
:10D6A0003449034628460CF09EFCC7E72A4B294D17
:10D6B00062893149ED1AED082D0445F0030528462D
:10D6C0000CF088FC6389852B0DD041F20602934251
:10D6D00023D007F03BFE1F481F4B284A2849C01A99
:10D6E000C00800048DE7274E6088314607F098F99E
:10D6F0000DF0ACFE214A2449034628460CF073FC89
:10D700003088224E07F0B2FAC82546F001064FF4E1
:10D710007A40B047013DFAD1DBE760881B4D01211B
:10D7200007F062F9C82445F001054FF47A40A84794
:10D73000013CFAD104B070BD074A06481449801A6A
:10D74000C0080004054A40F00300ACE7C63B0020D7
:10D75000B0450020A499030014990300BBA3030063
:10D76000E4A10300FFA1030000ED00E00400FA05BE
:10D7700036A2030080A20300CAA20300A0A30300F4
:10D7800003A30300C43B0020EAA20300F0A30300AC
:10D790001CA3030008B50948094B0A4A0A49C01AE4
:10D7A000C008000440F003000CF014FC07F068FA15
:10D7B00018B1BDE808400CF095BD08BDA499030060
:10D7C00014990300CAA3030024A303002DE9F04F1A
:10D7D000A5B0074607F064F808B10CF083FD3123CB
:10D7E0008DF8403007238DF8413010238DF84230FA
:10D7F0009DF8433023F0030343F003038DF84330D7
:10D800009DF8443023F0030343F0030310A88DF880
:10D81000443007F0DFF808B10CF064FD08230693EC
:10D820004FF6FF72012306A907A807F027F908B1F0
:10D830000CF058FD2F4B304CDFF8D4902F49DFF817
:10D84000D4B0E41AE408240444F00308069B4A46D2
:10D8500040460CF0C8FB07AD0026069B9E420CD349
:10D860000FB1274B1F60274807F09CF800283DD0D8
:10D8700025B0BDE8F04F0CF035BD288810A907F0A1
:10D88000A7F970B12B8805930DF0E0FD059B009082
:10D890003246594644F001000CF0AFFB0136023528
:10D8A000DBE79DF8523003939DF8533002939DF8C7
:10D8B000543001930DF12C0A9DF855309DF85720F6
:10D8C0001149009350469DF856301BF09CF8CDF856
:10D8D00004A02B8800930D4933464A4640460CF07D
:10D8E00098FB0CF01FFA0028FBD1D7E725B0BDE864
:10D8F000F08F00BF14990300A499030036A303001E
:10D90000B0450020B5D501005AA3030078A3030059
:10D91000AFA303004AA3030076DF704777DF7047A9
:10D920007ADF70477CDF70478FDF704767DF7047B3
:10D9300007B5032301220DF1070100208DF8073000
:10D94000FEF73CFF03B05DF804FB0CF0CBBC00001D
:10D9500008B507F077F8064B00280CBF012200221B
:10D960001A7004D1BDE80840022002F049B908BD90
:10D97000D045002013B513210190FFF7CDFF019A88
:10D98000034660B10748084C0849241AE4082404F7
:10D9900044F0020002B0BDE810400CF024BB02B01D
:10D9A00010BD00BF14990300AC990300F6A3030057
:10D9B00010B503785A1E0C2A4CD8DFE802F0070E87
:10D9C0005858131929363B3D42444900284B03203F
:10D9D0001870BDE8104002F013B9254B00221A70F0
:10D9E0000220F6E7017CC068BDE8104000F0BABB39
:10D9F000204B2148214A2249C01AC008000440F0A7
:10DA000003000CF0E7FABDE810401E48FEF710BF17
:10DA10001948184B194A1C49C01AC0080004BDE82F
:10DA2000104040F003000CF0D5BA0120BDE81040D2
:10DA300000F032BE0020F9E70120BDE8104000F000
:10DA400035BE0020F9E70120BDE8104000F038BEE7
:10DA50000020F9E7074A08480C49801AC00800046A
:10DA6000BDE81040054A40F002000CF0BCBA10BD01
:10DA7000E845002014990300AC99030087A7030030
:10DA800037A403002046002065A4030093A40300EC
:10DA900010B5124B044612481B1ADB08012C4FEA42
:10DAA00003400DD0022C12D040F003009CB90D4968
:10DAB0000CF08CFA21460C48BDE8104003F022B966
:10DAC0000A4940F00300BDE810400CF07FBA084955
:10DAD00040F00100F7E70749F5E700BFAC99030004
:10DAE00014990300A5A4030075D90100D4A4030070
:10DAF000F8A4030021A5030008B5037843B94088C2
:10DB00003B21FFF709FF18B1BDE808400CF0EABB64
:10DB100008BD00000148FEF7F5BD00BF204600200B
:10DB2000014B1878704700BFD045002030B58C4BB2
:10DB300093B000241C700BF055F808B10CF0D2FB28
:10DB400002A9012002940BF01FF908B10CF0CAFBE6
:10DB500002A80BF06DF908B10CF0C4FB814B824AAE
:10DB600003F11001154653F8040B42F8040B8B42E5
:10DB7000F9D14FF01024D4F8FC30C3F30723FF2B66
:10DB80000ED0D4F8FC3013F47F4F09D076481BF048
:10DB9000D2FAD4F88030754A052128441AF01FFFC4
:10DBA000734B7448744A7549C01AC00800046E4B20
:10DBB00040F003000CF017FA11236B488DF8043085
:10DBC0001BF0B9FA01AC82B267492046FFF7AAFE02
:10DBD00008B10CF087FB0023ADF80C300C23ADF836
:10DBE00008301823ADF80A3002A8C823ADF80E306B
:10DBF000FFF796FE08B10CF075FB6148002103F0B9
:10DC00007BFF08B10CF06EFB4022002102A81BF044
:10DC10003DFA5C4902A803F0C0F85B4904A803F090
:10DC2000BCF85A4908A803F0B8F859490AA803F003
:10DC3000B4F806A8574903F0B0F8012302A88DF8FC
:10DC4000443004F06BF808B10CF04CFB0023CDE934
:10DC5000043306938DF806304F4A504B1288ADF8C6
:10DC60000420CDE9023406A9032305A8ADF810303D
:10DC700019F0FCF84A4802A9FEF7DEFC08B10CF0E6
:10DC800031FB0021102202A81BF000FA012000F055
:10DC9000ADFF444B029301238DF814008DF80C3036
:10DCA0008DF81530404840F2011302A9ADF8163046
:10DCB00004F02FF908B10CF015FB3C4B029302A8BD
:10DCC00008F06CFC08B10CF00DFB3948FFF77EFD45
:10DCD000FEF7D6FBFFF7ECFBFFF77EF83548FFF7C2
:10DCE000F9FA1422002102A81BF0D0F94FF4702396
:10DCF0004FF42032CDE9032303238DF814302E4B4B
:10DD0000079302A82D4B089302F05EFE08B10CF0B9
:10DD1000E9FA0023CDE9023302A9012302208DF89C
:10DD20000830FFF703FE08B10CF0DCFA244A25485E
:10DD300001210CF02BFD08B10CF0D4FA06F082FEA4
:10DD4000024650B920484FF4A0110CF031FD20B12B
:10DD500013B0BDE830400CF0C5BA13B030BD00BF01
:10DD6000E84500203FA50300B445002012C203008F
:10DD700014990300AC99030044A7030050A50300C5
:10DD8000EC450020D09A030066A5030069A50300B6
:10DD9000A2A503005B47002041A70300B1D9010001
:10DDA00020460020DDDD0100D445002091DA01008D
:10DDB00055CC010031D90100F9DA01004BD901003D
:10DDC00051D90100B8A703000046002001464FF6D4
:10DDD000FE72014804F011B9D445002008B50B7853
:10DDE00013B1012B12D008BD0F4B1048104A114936
:10DDF000C01AC008000440F003000CF0EBF801204A
:10DE000000F0F4FEBDE80840FFF7E0BF064B07480E
:10DE1000074A0949C01AC0080004BDE8084040F09C
:10DE200003000CF0D7B800BF14990300AC990300AD
:10DE300077A70300AAA50300CDA50300014B18781E
:10DE4000704700BFE845002008B50A46014609486A
:10DE5000FEF7E8FC60B1084B0848094A0949C01AB6
:10DE6000C008000440F001000CF0B4F8002008BD28
:10DE70000120FCE72046002014990300AC99030020
:10DE800054A70300F1A50300054B10B50246044654
:10DE900019880320FFF742FD08B9024B1C7010BD22
:10DEA000C83B0020E9450020F0B5694B044600223C
:10DEB00087B00D461A70FEF785FE294620460BF006
:10DEC00039FB2388222B00F09E8007D8112B10D01D
:10DED000212B7BD0102B2BD007B0F0BD3B2B6AD071
:10DEE000562B68D0262BF7D107B0BDE8F040FEF7DF
:10DEF000F5BA584B58485949C01AC008000440F0B8
:10DF0000030003900CF062F8237A00930398A3882F
:10DF10005349544A0CF071F8534B4FF6FF721A8074
:10DF2000FEF7DCFAA08807B0BDE8F040FFF7BABA08
:10DF30004D4BA2884D4D1A800420FFF7A5FF4FF4EA
:10DF4000FA7645F001054FF47A40A847013EFAD130
:10DF5000204607F077FB404D3E4B4549ED1AED0852
:10DF60002D0445F0030738460CF030F831463046B2
:10DF700001F010FE3146022001F00CFE02233D4963
:10DF80003D4A8DF8143038468DF815300CF022F8E3
:10DF9000A088FFF787FAA08805A9FFF7C5FC00282D
:10DFA0009AD00DF053FA2F4A3449034645F0010048
:10DFB0000CF019F890E7A0881321FFF7ADFC0028BA
:10DFC0008AD007B0BDE8F0400CF08CB9214B224D4F
:10DFD0002B49ED1AED082D0445F003000BF0F6FF78
:10DFE0000223A0888DF8143005A98DF81530FFF7AD
:10DFF0009BFC024600283FF46FAF224945F0010028
:10E000000BF0E8FF68E7134A1348637A1E49247A45
:10E01000801AC0081D4A0004013B40F00300002C98
:10E0200018BF0A46062B0ED8DFE803F00F04040BD6
:10E030000D0D0400104B164907B0BDE8F0400BF081
:10E04000D2BF144BF7E7144BF5E7144BF3E700BFCF
:10E05000D045002014990300AC99030045A60300A5
:10E0600053A6030099A70300C83B0020B0A70300F4
:10E070008CA6030097A603003EA60300AFA60300EC
:10E08000D4A60300E8A6030020A6030017A60300F9
:10E090000EA7030038A6030029A6030031A603003B
:10E0A000014B93F900007047E945002010B5234B60
:10E0B000234C244AE41AE4082404022844F003040C
:10E0C00022D0D9B1204B1B78C3B120461F490BF099
:10E0D00081FF032001F0A2FC01F0F6FC02282BD105
:10E0E00001F078FC012827D12046164A18490BF088
:10E0F00071FF0320BDE8104001F082BD20461549A4
:10E100000BF068FF0220E5E769B1134B1B7853B1B0
:10E11000124920460BF05EFF032001F0E9FB0120CD
:10E1200001F0D8FCD8E70E4920460BF053FF012040
:10E1300001F0DEFB0020F3E70420DBE71499030085
:10E14000B499030004AB03005E460020BCA70300A3
:10E1500036A80300DAA703005C460020F9A70300F5
:10E1600017A80300F0B501298BB04FF00006CDE9E8
:10E170000866037805460C4640F01181212B8DF886
:10E18000203014D8212B21D8DFE803F041565E65FA
:10E19000727DABB4B42020202020202099202020A4
:10E1A000202020202020202020202020B0B6502B0E
:10E1B00000F0D58017D8312BBF4DC04F00F0AC8098
:10E1C000402B00F0BD80302B00F0A480BB4BBA4840
:10E1D000BB4ABC49C01AC008000440F002000BF062
:10E1E000F9FE00243EE0702B00F0BE80802B00F092
:10E1F000C780602BEAD10A4664230DF11501142073
:10E2000011F04AFB002869D00CF06CF866E0AE4CC7
:10E21000AA4AA9482388AD49801AC00801330004DE
:10E220009BB2A74A238040F003000BF0DCFE23885A
:10E230008DF821301B0A0BE003238DF822300623D2
:10E240008DF8243004240DE002218DF821100723DD
:10E250008DF8223072E002238DF8213011238DF8E1
:10E2600023300324611C08A8FFF7EEFD0BB0F0BDBE
:10E270004FF01023D3F8FC305A1E534253418DF80F
:10E2800021300123E4E74FF010238B48D3F880407E
:10E290008A4B8B4A8E49C01AC0080004234640F0BE
:10E2A00003000BF0A0FE230E8DF82130230C8DF817
:10E2B0002230230A8DF823308DF82440C2E77F4AAC
:10E2C0007D48844B84491B788DF81530801AC0082E
:10E2D00000047B4A40F003000BF085FE9DF81530EA
:10E2E00001E07C4B1B788DF8213003E00FF0A0FC9F
:10E2F0008DF821000124B5E70FF0A0FC030A8DF88A
:10E3000021008DF82230030C000E8DF823308DF89B
:10E31000240097E73378FFDE0022E81B13788DF89E
:10E32000213053788DF82230C00812780092000412
:10E33000634A6A4940F003000BF05FFE022491E754
:10E34000FFF7AEFEED1BED082D0403468DF821000E
:10E350005B4A634945F003000BF045FE82E7FFF797
:10E3600095F88DF821007DE764220DF11601304605
:10E3700010F01CFE08B10BF0B5FFBDF8163057E7E2
:10E3800006A811F023FC9DF81E301B09092B8DF8FF
:10E3900015308DF821308CBF0023012358E7212B45
:10E3A00000F0FB803BD8122B2AD8122B2BD801A2CD
:10E3B00052F823F079E4010007E4010007E40100CA
:10E3C00007E4010007E4010007E40100F5E40100AF
:10E3D00009E501006DE201003DE5010007E40100EF
:10E3E00007E4010007E4010007E4010007E401007D
:10E3F00007E4010007E4010059E5010099E4010088
:10E40000202B00F0B8802D4B2B482D4A3549C01ADF
:10E41000C008000440F002000BF0DCFD26E7802B72
:10E4200000F01A811BD8412B00F0CE80502B00F059
:10E43000DB80402BE7D190F9013003931846FFF7BA
:10E4400023FD1D4C1D4A039BA41AE4081C4A240406
:10E45000002840F0B580244944F0030019E0F02B77
:10E4600000F0C680FF2B00F0DE80902BCBD18178AE
:10E47000407801F08FFBC6E7134AB0F801301380F3
:10E480000D480E4A1949801AC00800040C4A40F091
:10E4900003000BF0A8FDE9E6084B0748084A1449B9
:10E4A000C01AC008000440F003000BF093FD902058
:10E4B0000BF018FFDAE600BFB499030014990300CB
:10E4C0001CAB0300FFA803006046002069A80300FE
:10E4D00080A803005D46002098A80300B9A80300A7
:10E4E000E3A80300B7AA03000FAA030037A903009B
:10E4F00051A9030041785B4B003918BF0121197005
:10E500000120FFF7D3FDB1E6574B5848584A594907
:10E51000C01AC008AB78009300046B7840F0030089
:10E520000BF06BFDA9786878003918BF012101F064
:10E53000FDFA01F0D1FA01460220E2E74A4B4B48CE
:10E540004B4A4D49C01AC008000440F003000BF0CC
:10E5500041FD01F045FA89E6434B4448444A4749A6
:10E56000C01AC008000440F003000BF033FD6878C7
:10E5700001F038FA7AE690F901403B4B3B483C4ABF
:10E580003F49C01AC0080004234640F003000BF0C6
:10E590002AFD20460FF040FB68E6D0F80140324BE0
:10E5A0003248334A3749C01AC00824BA0004234607
:10E5B00040F003000BF017FD20460FF033FB55E64B
:10E5C000314944F0010064E7274B2848284A2F4985
:10E5D000C01AC00800046B7840F003000BF003FD84
:10E5E0006878FEF7BDFF41E64078FEF745FF3DE65F
:10E5F000B0F80130ADF816304BF6EF6293427FF47D
:10E6000035AE03297FF432AE174B1848184A20491B
:10E61000C01AC008000440F003000BF0DBFC01202E
:10E6200000F036FB22E6B0F80130ADF816304DF6BA
:10E63000AD6293427FF41AAE03297FF417AE0A4B02
:10E640000A480B4A1349C01AC008000440F00300EE
:10E650000BF0C0FC3046E3E740780830C0B200F071
:10E66000BBFC03E65D46002014990300B499030047
:10E670001CAB03006AA9030088A90300A8A9030032
:10E68000C4A90300E8A9030033AA03005EAA03009B
:10E6900085AA03009EAA0300034B0146187010B917
:10E6A0000120FFF703BD70475E460020034B014683
:10E6B000187010B90220FFF7F9BC70475C460020C3
:10E6C0007047000007B5F622002108481AF0DEFC6A
:10E6D000064BF7226946022018F07EFC00280CBF8A
:10E6E0000320002003B05DF804FB00BF6446002057
:10E6F00010B500F06BFC05280DD108481AF01BFD81
:10E70000064902460020FEF759F8044608B9FFF70B
:10E7100001FA204610BD0E24FBE700BF644600202E
:10E7200070B5294D2B7883B3FFF7E2FF274C284BB8
:10E73000E41AE408240444F0010680B1022018F031
:10E740008DFD2A46F721022018F034FD38B1FFF77D
:10E75000B9FF204A20492B4630460BF044FC304696
:10E760001E490BF033FC1E4944F002000BF02EFC56
:10E77000BFF34F8F1B491C4BCA6802F4E06213437E
:10E78000CB60BFF34F8F00BFFDE7FFF79BFF98B94A
:10E790002B788BB1FFF7ACFF70B90D4B0B48134AC8
:10E7A0001349C01AC008000440F003002B460BF0C8
:10E7B0001AFC022018F052FDBDE870400248F72212
:10E7C00000211AF063BC00BF644600206499030076
:10E7D0001499030032AC030049AB03005DAB0300A6
:10E7E00069AB030000ED00E00400FA053BAC030058
:10E7F00076AB0300F0B587B006460F4615460BF022
:10E8000039FC0BF08FFA0028FBD1294B294CE41A74
:10E81000E40844F2010324049E4244F0010434D08D
:10E8200011D8012E1CD041F201039E422BD0224A66
:10E8300022483B46F6211AF0D2F81F493A462046B4
:10E840000BF0C8FB10E044F202039E42EFD12B68AC
:10E8500000936B681A4A1948F6211AF0C0F803E0D1
:10E86000184920460BF0B2FB144A174920460BF01A
:10E87000B1FB204615490BF0A9FB082007B0BDE805
:10E88000F04000F0A9BB1249EBE7AB6805931846CE
:10E890000CF0DCFD2A68039702926A68059BCDE9BB
:10E8A0000002F6210B4A05481AF099F8DCE700BF90
:10E8B000149903006499030006AC03006446002029
:10E8C000C6AB030087AB0300559E03001EAC0300DC
:10E8D000A4AB0300E0AB030032DF704733DF7047C7
:10E8E000042810B40CD9431F012B0BD80023074C6C
:10E8F000205C012806D15DF8044B1846FDF75EBF89
:10E900000123F4E75DF8044B704700BFB5470020D2
:10E9100010B50B4C2368A3F58833A3F5B87347F201
:10E920003052934205D80123C8223221032010F02F
:10E9300047F9236803F5CC531A33236010BD00BF99
:10E94000C8470020000000002DE9F041072800F230
:10E95000D480DFE800F004111618141423CB764895
:10E96000764B774A7749C01AC0080004BDE8F041E9
:10E9700040F003000BF02EBB734B01221A70BDE870
:10E98000F081724BF9E7724B01221A70714B1B78C0
:10E99000032BF4D1BDE8F0410FF07ABD6E4E012398
:10E9A00033703378002BEAD011F064FD07EE900A43
:10E9B000F8EEE77A17EE900A19F05CF856A3D3E95F
:10E9C000002318F049FE19F06FF819F053F80446C7
:10E9D00002460B460D460020604918F039FE0246FB
:10E9E0000B462046294618F0D3FE19F05DF819F0C1
:10E9F00041F841EC100B19F04BFB49A3D3E900237C
:10EA000051EC100B18F002FD19F04EF819F032F825
:10EA100002460B4644A1D1E9000118F0B9FE44A317
:10EA2000D3E9002318F014FE19F03EF89FED4C7A5C
:10EA30004C4C07EE900AF4EEC77AF1EE10FA17D5B7
:10EA400020683D4C19F016F8474B002218F004FEE0
:10EA500018F0D6FF03463948444A4549241AE408C9
:10EA6000240444F003000BF0BEFA0023337086E761
:10EA7000DFF81081206094ED007AD8ED007A3D4FE8
:10EA8000B4EEE77AF1EE10FA08DC94ED007AD7EDF7
:10EA9000007AB4EEE77AF1EE10FAE6D52068264D5A
:10EAA00018F0E8FF304B002218F0D6FD18F0A8FF50
:10EAB000034622482D4A30492D1AED082D0445F011
:10EAC00003000BF090FA94ED000A10F051FB94ED66
:10EAD000007AD4ED007AF5EE006A37EE267A77EE0A
:10EAE000E67A88ED007AC7ED007ABEE7234B012273
:10EAF000BDE8F0411A7011F08FBC104B0E4C104A5B
:10EB00001F49E41AE4082404034644F00200BDE867
:10EB1000F0410BF068BA00BFCDCCCCCCCCB80E3FE6
:10EB2000641161A153AC2640000000000068AA40B7
:10EB30006666666666127140C49903001499030004
:10EB400059B4030047AC0300BD470020AC47002088
:10EB5000B4470020BC470020CD4700200000F03F14
:10EB600000C079C4D43B002000408F404BB4030068
:10EB70005DAC0300E03B00209BAC0300CC470020D1
:10EB8000D5AC0300D83B0020024B800143F00103C9
:10EB9000184700BF90B5030010B504464FF47A70D3
:10EBA000FFF7F2FF013CF9D110BD0000012805D0AC
:10EBB000022805D030B90320FDF700BE11F084BC57
:10EBC00011F0D6BC0548064B064A0749C01AC008D2
:10EBD000000440F001000BF0FDB900BFC499030030
:10EBE0001499030081B40300EEAC030010B510F0DB
:10EBF000EFFC084C084A2070084823780849801A1E
:10EC0000C0080004074A40F003000BF0ECF920783C
:10EC100010BD00BFD03B002014990300C49903002D
:10EC200018AD03003AB50300052810B50AD91248FB
:10EC3000124B134A1349C01AC008000440F00100E7
:10EC40000BF0C8F9104C2368B3F5A02F12D04FF485
:10EC5000A0230E4823600BF0F7FD08B10BF042FB38
:10EC600021680A4800220BF0A3FD18B1BDE810404E
:10EC70000BF038BB10BD00BFC4990300149903000A
:10EC800017B503002FAD0300DC3B002068470020D0
:10EC9000F7B5002304468DF80530ADF80630052899
:10ECA00000F27181DFE810F0060051009A00A60022
:10ECB000EA002B01B94D2B78002B41D0B84BB94855
:10ECC000B94ABA49C01AC008000440F003000BF06A
:10ECD00081F910F061FA08B10BF004FB0BF022F897
:10ECE0000028FBD164220DF106011D2010F05EF911
:10ECF000002840F0A680BDF806101D2041F08001DC
:10ED000010F064F9002840F09C80642301220DF18A
:10ED10000501102010F0C0FD002840F092809DF801
:10ED20000510642241F00301102010F099FD002825
:10ED300040F0878028706420FFF726FFFFF7CEFDA4
:10ED40002046FFF771FF00207BE0944E3378012BC3
:10ED5000F6D0934B934D944A9549ED1AED082D0446
:10ED600045F003000BF036F910F016FA074658B1DB
:10ED70000CF06CFB8C4A8F49034645F001000BF008
:10ED800032F938460BF0AEFA0AF0CCFF0028FBD17E
:10ED900064220DF106011D2010F008F9002850D161
:10EDA000BDF806101D2041F0800110F00FF9002879
:10EDB00047D1642301220DF10501102010F06CFDF4
:10EDC00000283ED19DF80510642241F00201102078
:10EDD00010F046FDA8BB01233370ACE77148704BBF
:10EDE000714A7549C01AC008000440F003000BF0D6
:10EDF000F1F8A5E7694D2B78032BA1D0684B694842
:10EE0000694A6E49C01AC008000440F003000BF0C4
:10EE1000E1F80120FFF760FD64220DF10601BA2040
:10EE200010F0C4F868B9BDF90630BDF80610002B23
:10EE300009DA642301220DF10501102010F02CFDE8
:10EE400048B103B0F0BD41F40041BA2010F0BEF863
:10EE50000028EED0F5E79DF80510880605D50323B8
:10EE600064202B70FFF790FE6AE7642241F02001D6
:10EE7000102010F0F5FC0028F1D0E2E7474D2B7888
:10EE8000042B3FF45DAF464B4648474A4C49C01AF5
:10EE9000C008000440F003000BF09CF80120FFF7CD
:10EEA0001BFD64220DF10601BA2010F07FF8002846
:10EEB000C7D1BDF90630BDF80610002B0EDA642369
:10EEC00001220DF10501102010F0E6FC0028B8D158
:10EED0009DF805108A0609D40423C1E741F40041D6
:10EEE000BA2010F073F80028E9D0AAE7642201F0F4
:10EEF000DF01102010F0B4FC0028EDD0A1E7274D71
:10EF00002B78052B3FF41CAF254B2648264A2D496C
:10EF1000C01AC008000440F003000BF05BF8FDF7D6
:10EF200089FC0020FFF7D8FC64220DF10601BA200D
:10EF300010F03CF8002884D1BDF90630BDF8061069
:10EF4000002B0FDB642301220DF10501102010F0CE
:10EF5000A3FC00287FF475AF9DF805108B0609D43B
:10EF600005237DE7C1F30E01BA2010F02FF8002829
:10EF7000E8D066E7642201F0DF01102010F070FC99
:10EF80000028EDD05DE70748054B074A0E49C01A37
:10EF9000C008000440F0010029E700BFE43B002066
:10EFA00014990300C4990300F4B403005EAD030098
:10EFB0008AAD0300BBAD0300EBAD03001AAE030046
:10EFC00046AE030075AE0300A3AE0300014B1878F4
:10EFD000704700BFE43B002070B5A44EA44C88B03D
:10EFE000054604A80FF0E2FD122D00F23081DFE8A3
:10EFF00015F0130029003B0065007C00A300D4003D
:10F00000B700EF00FB0003010E011E001201F1002A
:10F0100016011F01240129019648974B974A9849E8
:10F02000C01AC008000440F003000AF0D3FF002318
:10F030000122CDE900324FF4FA713C234FF496726D
:10F04000042030E08C4B8B488C4A8E49C01AC00893
:10F05000000440F003000AF0BDFF3C21042008B08A
:10F06000BDE870400FF0E8BDFEF7E8FE814B834A33
:10F070008549044680481B1ADB081B0443F0030043
:10F0800003900AF0A7FF022C50D0032C63D0012C70
:10F0900003980CD100230424CDE90034F0234FF46D
:10F0A000C872642103200FF0FDFC08B070BD734AE4
:10F0B000764908B0BDE870400AF08CBF6B4B1B78F6
:10F0C00003F0FF04002BF0D10FF098FC6A4B694865
:10F0D0006A4A6F49C01AC008000440F003000AF0F1
:10F0E00079FF0423CDE90043D8E73378002BDCD146
:10F0F0000120FFF77BFD0A280BD894ED007AF0EE93
:10F100000C7AB4EEE77AF1EE10FA4FF006053FF50F
:10F1100068AF594B5748594A5E49C01AC0080004A5
:10F1200040F003000AF056FF0FF068FC00230420B3
:10F13000CDE900303C23B2E74C4B1B78002BB4D117
:10F140004C484D4B4D4A5449C01AC008000440F089
:10F1500003000AF03FFF08B0BDE870400FF04EBC5E
:10F16000424B1A78002AA0D1DB7803F0FF04002B71
:10F17000F1D1414B3F48414A4849C01AC0080004F8
:10F1800040F003000AF026FF0423CDE9004340F6D7
:10F19000B832F0236421012085E7344B1A78002A25
:10F1A00083D1DB7803F0FF04002BD4D1324B3148FC
:10F1B000324A3B49C01AC008000440F003000AF07C
:10F1C00009FF0423CDE900434FF4C8723C23E1E773
:10F1D0000FF0E0FD00230120CDE900304FF49672DE
:10F1E0003C234FF4FA715EE70FF008FC022008B0F0
:10F1F000BDE870400FF034BC00230121CDE900319F
:10F200004FF496723C234FF4FA7102204BE70FF053
:10F21000F5FB0420EBE70FF0F1FB0120E7E7032308
:10F2200064221146184608B0BDE870400FF0C8BC13
:10F230006422032311460520F5E7642203231146C7
:10F240000620F0E76422032311460720EBE70A4873
:10F25000084C0A4A1349241AE40824042B4644F0B3
:10F26000020008B0BDE870400AF0BDBEA84700200B
:10F27000CC3B0020C499030014990300DAB40300C6
:10F28000D2AE0300EFAE03000CAF03002DAF0300BE
:10F2900044AF030069AF03008EAF0300ABAF0300C0
:10F2A000CAAF0300EDAF03002DE9FF41694D6A4C81
:10F2B0000921284611F068F8684A69490095A41A9E
:10F2C000E408240444F003040346664A20460AF096
:10F2D00094FE654A65496648242310F03BFE11F010
:10F2E0004CF8002800F0A880624E0FF069FB002364
:10F2F00033707370B370F37010F02EFB08B10AF026
:10F30000F1FF002017F02AFE6420FFF745FC5A4B5E
:10F310005A4F00221A809A805A8064233B7010F062
:10F32000CBF810B908200AF0DDFF4E4A5449554D7C
:10F3300020460AF04FFE0120FFF758FC524B02A86E
:10F340004FF0010883F8008010F040FC029B2B6016
:10F35000BDF80C30AB809DF80E304649AB712846A5
:10F3600010F010FD3378D3B1AB793E4A474903F032
:10F370000C0320460AF037FEAB793A4A444903F0C1
:10F38000F00320460AF02FFEA87900F0F00010F0FC
:10F39000A9FC7378002B53D00020FFF71DFE01203D
:10F3A00011F024F810F0F6FB0FF07EFE394A3A48CF
:10F3B00001210BF0EBF908B10AF094FF374A384805
:10F3C00001210BF0E3F908B10AF08CFF3548002267
:10F3D0004FF4A0210BF0ECF908B10AF083FF32489A
:10F3E0000EF0ACFA10B908200AF07CFF1D4A2F4934
:10F3F0002F4E20460AF0EEFD052530460FF0B8F8F6
:10F4000040B90FF05BF8013D6420FFF7C5FB15F034
:10F41000FF05F2D1274A284920460AF0DBFD274B99
:10F4200001221A70264B00221A700AF07BFC002879
:10F43000FBD104B0BDE8F0810520FFF7ADFB4EE73E
:10F440004046FFF7C9FD3B785F2BA8D810F012FCAF
:10F45000A5E700BF5B470020C4990300149903008F
:10F4600006B0030095B403006DD60200EDD802008B
:10F4700049E90100A8470020AE470020D03B00200A
:10F4800020B00300BE470020AC47002035B0030089
:10F4900065B0030011E901009CB50300C5F401004B
:10F4A00098B5030068470020ADEB01008BB0030066
:10F4B000E1E801003AB403009FB00300BC4700201C
:10F4C000B44700201FB5224C204610F0A1F90120BE
:10F4D000FFF78CFB0A2810D894ED007AF0EE0C7A36
:10F4E000B4EEE77AF1EE10FA07D5FEF7A7FC032891
:10F4F0000CBF07200620FFF76FFD10F0C1FF154C71
:10F5000010F07AF8684610F061FB009B2360BDF8AC
:10F510000430A3809DF80630A37102A810F056FBBA
:10F520000D4B0E489DF80E400D4A0E49C01AC008FA
:10F5300024090004234640F003000AF054FD0A2C7D
:10F5400004D904B0BDE810400FF058BA04B010BDA3
:10F55000CC3B0020BE47002014990300C49903004F
:10F5600069B40300B7B003002DE9F047AC4C237831
:10F5700088B01BB10EF0ECFA00232370A94F3B7842
:10F58000002B00F0D580A84CA84D02A810F01EFB5F
:10F59000029B2360BDF80C30A3809DF80E30A37150
:10F5A00028680590C6B2C0F30729C0F3074A4FEA9E
:10F5B00010682946204610F0E5FB23799A0754D5B8
:10F5C000A07900F0F00010F08DFBB8F1000F18D119
:10F5D000EB78B3B1964B9748974A9849C01AC00840
:10F5E000000440F003000AF0F5FCA37903F0F003F7
:10F5F000B02B04D0C02B00F00781A02B01D110F05C
:10F6000039FBBAF1000F0CD1AB7853B18948884B64
:10F61000894A8B49C01AC008000440F003000AF070
:10F62000D9FC6B78B9F1000F00F03181EBB9814B57
:10F630007F4A8449A3EB02084FEAD8084FEA0848FA
:10F6400048F003087C4A40460AF0C4FC2B7863B1BA
:10F650000120FFF7C1FC7C4B1B785F2B40F214812B
:10F66000754A7A4940460AF0B5FC23795B071BD5F9
:10F670006F4B7048704A7649C01AC008A3790004DD
:10F6800040F0030003F00C0301900AF0ACFC019879
:10F690002B78002E00F0118133B9674A6D490AF0CA
:10F6A00099FC0220FFF798FC23785D071CD5604B7E
:10F6B000604D614A6849ED1AED082D0445F00305D7
:10F6C00028460AF087FC32221146052306200FF057
:10F6D00077FA002241F69A1160480BF069F8564A11
:10F6E0005F4928460AF076FC237818071BD5504B53
:10F6F00050485C4C504A5C49C01AC008000440F0B5
:10F7000003000AF067FC2368A3F58833A3F5B873F8
:10F7100047F23052934201D8FEF73CF800234F489D
:10F7200023600BF091F810F021FE08B100233B702C
:10F730004E4D2B78002B5ED04D4C06A80FF0F4FCFC
:10F740006288BDF81A30534059060FD5384B3948F6
:10F75000484A4949C01AC008000440F003000AF0B2
:10F7600039FC0FF019FD00200FF078FD0698364E99
:10F77000BDF81C3020600020A380FFF737FA3078F6
:10F78000FEF724FB23881A0607D5218821F0800183
:10F790000904090C00200FF019FC2388DB0507D5AC
:10F7A000218821F480710904090C00200FF00EFC5F
:10F7B000324C204610F02CF8206818F05BF916A3A4
:10F7C000D3E9002318F000F998B1194A19483378A1
:10F7D0002B49801AC0080004264A40F003000AF0B2
:10F7E00002FC124B1A7822B95B7813B90120FFF79B
:10F7F0004FFA00232B70234B1B78052B6AD108B0DE
:10F80000BDE8F047FEF786B9607900F0070010F018
:10F810006BFAF6E6AFF30080CDCCCCCCCCCC084074
:10F8200064470020BD470020BE470020A8470020B5
:10F8300014990300C499030075B50300CFB0030009
:10F84000ECB0030004B10300D03B002019B1030069
:10F8500044B103008FB10300E4B1030088470020E6
:10F8600007B20300C84700202AB20300AC470020BB
:10F87000AE47002059B503004EB20300CC3B002038
:10F8800096B20300E43B002010F0F4F9EDE6002B03
:10F890003FF4EBAE2B78002B3FF4E7AE0F4B104854
:10F8A000104A1149C01AC008000440F003000AF0D1
:10F8B00091FB4846FFF790FBD7E6002B3FF4F4AEF0
:10F8C000084A0A490AF086FB6B780BB13046E9E634
:10F8D0000120E7E608B0BDE8F08700BF14990300F7
:10F8E000C499030075B503002FB10300BBB1030039
:10F8F000F7B52F4B2F4D304E0090ED1AED082D042B
:10F9000033782E4A2E49044645F003000AF075FB71
:10F910003378A34216D0337803F0FF0733B9294870
:10F920000EF026FE01233370274B1F70032C38D8AE
:10F93000DFE804F0020A172E0EF0C0FD08B1002027
:10F940000DE0307001200AE001200EF045FD002896
:10F95000F5D10EF041FD0028F1D10120307003B047
:10F96000F0BD01200EF038FD48B10BF06FFD134AD9
:10F970001649034645F001000AF035FBDFE741F286
:10F9800088310EF03DFC0028EFD102233370D9E717
:10F9900041F2883101200EF033FC0028CFD103233F
:10F9A000F4E7064A0A4945F001000AF013FBC9E7EB
:10F9B00014990300C4990300BC470020C0B403009D
:10F9C000C4B20300E1E80100B4470020F4B2030030
:10F9D00018B30300014B1878704700BFBC470020E4
:10F9E0000EF0C6BC10B50C4B1B78032B12D14FF494
:10F9F0007A74444341F270739C420BDCB4F57A7F15
:10FA000008DB01200EF0E8FCA1B20120BDE81040A7
:10FA10000EF0F6BB10BD00BFBC47002070B5234EF2
:10FA200033789842054615D0022815D00DD9032801
:10FA300034D01F4B1F48204A2049C01AC008000478
:10FA400040F001000AF0C6FA04E000200FF04CFF7D
:10FA500098B93570012011E000200FF045FF0446F1
:10FA600068B1134B1348144A1549C01AC008000462
:10FA7000234640F001000AF0B6FA002070BD0EF0F7
:10FA800093F80028E5D00A4B0A4D0B4A0D49ED1AB0
:10FA9000ED082D04034645F00100ECE701200FF0CE
:10FAA00023FF0028E9D10DF0CBFFD1E7CE4700209E
:10FAB00014990300C4990300A6B40300EEAC03003C
:10FAC0003EB3030060B30300014B1878704700BFDA
:10FAD000CE4700200EF080BB38B5072201210C482C
:10FAE0000C4C18F0F7FE0C4B0C4A0D49E41AE408D4
:10FAF000051E4FEA04440B4B44F0030008BF1346B5
:10FB0000094A0AF070FA281E18BF012038BD00BF4C
:10FB1000B5470020C49903001499030081B3030082
:10FB200087B303007CB3030024B4030013B503467A
:10FB3000104C1148241AE408062B4FEA04440FD84D
:10FB40000E4A0F48D1540F4A002918BF02460092AE
:10FB50000D490E4A44F003000AF04FFA02B010BDFE
:10FB60000A4A0B4944F0010002B0BDE810400AF017
:10FB70003ABA00BFC499030014990300B5470020A6
:10FB800093B303009AB30300A2B3030006B40300C7
:10FB9000BFB3030037B504460D460EF02FFF54EAFD
:10FBA000050318D0012D0BD0022D16D09DB964226B
:10FBB00003231146204603B0BDE830400FF000B8E3
:10FBC00000230422CDE900326421F0234FF4C872EF
:10FBD00020460EF067FF03B030BD204603B0BDE8FD
:10FBE00030400EF03DBF0000034B00221A70034B63
:10FBF00001221A70704700BFCF470020D047002075
:10FC0000014B1870704700BFD047002038B5254C15
:10FC1000254D23782A789A4215D02448244A801A00
:10FC2000C008013B0004032B35D8DFE803F0020DC8
:10FC30001D2A204A204940F003000AF0CBF9022394
:10FC4000237023782B7038BD1A4A1C4940F00300FA
:10FC50000AF0C0F90320FFF71BF80120FFF7DEFED2
:10FC60000120FFF745FEECE7124A154940F003007A
:10FC70000AF0B0F90420FFF70BF80520FFF7ACF904
:10FC8000DFE70C4A0F4940F003000AF0A3F9052012
:10FC9000FEF7FEFFD5E7074A0B4940F002000AF0E5
:10FCA00099F9CEE7D0470020CF470020CC99030038
:10FCB000149903005CB60300A0B50300C5B50300AA
:10FCC000E7B503000CB6030030B603003FDF704712
:10FCD00008B50B480B4B0C49C01AC008000440F093
:10FCE00003000AF073F9BFF34F8F0849084BCA6845
:10FCF00002F4E0621343CB60BFF34F8F00BFFDE718
:10FD0000649903001499030072B6030000ED00E04B
:10FD10000400FA0570B5514A07CA86B003AB83E800
:10FD200007004F49184607F0FDFE08B10AF0DAFA5D
:10FD30004C4807F031FF08B10AF0D4FA07F01EFF73
:10FD40004FF40041002009F06DFF08B10AF0CAFA33
:10FD500009F0A4FE17F076F803214348434C0AF05B
:10FD600067F9434B434901225A71434B434AE41A12
:10FD7000E408240444F0030420460AF02BF909F0B7
:10FD8000D1FF0028FBD10AF0D1FC08B10AF0AAFA91
:10FD90003B4B01933B4B0093384A3B4B3B4920463E
:10FDA0000AF037F909F0BEFF0028FBD10BF0DEF9AD
:10FDB00008B10AF097FA314A354920460AF00AF9A3
:10FDC00009F0B0FF0028FBD1FFF76EFA2B4A31494A
:10FDD00020460AF0FFF809F0A5FF0028FBD1FDF747
:10FDE000A5FE264A2C4920460AF0F4F809F09AFFAD
:10FDF0000028FBD1FFF7F8FE204A284920460AF0E8
:10FE0000E9F809F08FFF0028FBD10120FFF75EFF22
:10FE100008B10AF067FAFCF755FB124E204DFFF7C8
:10FE2000F5FEFFF7A1FBFEF77BFC307807F0DAFE6A
:10FE300009F078FF0028FBD109F074FF08B90BF036
:10FE4000ABF9FDF76DFE0028E9D0204629460AF0FF
:10FE5000BDF80120FEF71CFFE1E700BF84B70300F7
:10FE6000D1FC0100D14700209C9A03006499030053
:10FE7000E83B002096B603001499030090B70300F6
:10FE800066A50300A2A503003FA50300B5B60300C5
:10FE9000D6B60300FDB603001DB703003FB703004D
:10FEA00063B703006DDF704779DF70477DDF704710
:10FEB00064DF70472DE9F04F85B000250E9CBDF83A
:10FEC0003CB0B4F800A00191074690461E46A946F2
:10FED0003A884A450DDC45B12388013BA3EB0A0370
:10FEE0009BB2FF2B3AD806F80A30002005B0BDE8D7
:10FEF000F08F7A6852F82900039000220DF10B016F
:10FF000003A8FFF7D5FF0028F0D19DF80B2042454C
:10FF100021D12288002D14BF0020022002EB08010D
:10FF2000014459451ADC3DB9013292B2019B22804D
:10FF3000B35422880132228022880DF10B01324411
:10FF400003A8FFF7B5FF0028D0D121889DF80B202A
:10FF50000A442280012509F10109B9E70C20C5E70F
:10FF60002DE9F341089FBDF824801546CDE90078BE
:10FF7000022204461E46FFF79DFF50B93346102269
:10FF800029462046CDE9087802B0BDE8F041FFF7E8
:10FF900091BF02B0BDE8F0812DE9F04F0023178832
:10FFA000138090F82D3085B006460D4614465BB39D
:10FFB000082F01D80C2028E102A8FFF773FF0028C2
:10FFC00040F023812388DDF809100822EA542388B1
:10FFD00001339BB21B222380EA54238801339BB256
:10FFE000EA182380E950BDF80D30938023889DF8EE
:10FFF000082006339BB212F0FE0218BF01222380B4
:020000022000DC
:10000000EA54238801332380B378FBB12388043377
:10001000BB42CFD802A8FFF747FF002840F0F58089
:1000200023880322EA54238801339BB219222380B8
:10003000EA542388BDF8082001339BB2E9182380D5
:10004000EA54120A4A70238802332380F2789AB164
:100050002388D91CB942ADD80221E9542388013341
:100060009BB201212380E95423880B449BB2238057
:10007000EA5423880B4423807268AAB12388D91CD0
:10008000B94297D8022192F90020E954238801331C
:100090009BB20A212380E954238801339BB2238039
:1000A000EA542388013323803389002B40F0A18058
:1000B000338A5BB1CDE900472B460722032106F1C5
:1000C0001000FFF74DFF002840F09F80338B5BB19D
:1000D000CDE900472B461522142106F11800FFF741
:1000E0003FFF002840F09180326A002A40F0908063
:1000F000D6F82480B8F1000F30D0B8F80430218849
:10010000981C8A1C0244BA423FF654AFFE283FF6C0
:1001100051AF03336B54238801339BB2FF222380FA
:10012000EA54238801339BB22380B8F80020EA54B4
:10013000E918120A4A702088023080B22080B8F88C
:1001400004205AB1D8F8081000296BD0284418F0C0
:100150009DFD2388B8F804201344238096F82C30A2
:10016000002B40F09880307800284ED03388012B47
:1001700058D0228802F1020CBC453FF61BAF012883
:1001800005D17378023313449F42FFF413AF023F4B
:10019000BF1ABFB202A905EB0C00ADF80870FFF75B
:1001A00085FE90BB3178BDF80830022900F0B98097
:1001B00072789A4202D39F4280F0B180012940F0C8
:1001C000B280974293B2C0F0AE80ADF808300821FB
:1001D000BDF80830FE2B3FF6EDAE22880133AB545C
:1001E0002288013292B22280A954228813442380AB
:1001F0000BE0CDE900472B460622022106F108005C
:10020000FFF7AEFE00283FF453AF05B0BDE8F08F16
:10021000B4F800C00CF10603BB423FF6CBAE118828
:10022000052901D80720F0E76FF4486E01EB0E03B3
:100230009BB24FF27D3E7345F4D95388052BF1D91B
:100240006FF44860181880B27045EBD94FF6FF7014
:10025000814201D09942E5D8052305F80C30238866
:1002600001339BB212212380E954238801339BB2CE
:1002700023801188E954E818090A41702388023361
:100280009BB223805288EA54E918120A4A702388E4
:10029000023323802CE7B36A002BC3D04FF0000851
:1002A0004FF00C0A4FF0160BB16A5FFA88F20AFBA6
:1002B00002F201EB0209B9F80430981CFE283FF65F
:1002C00079AE208803332B54238801339BB22380DB
:1002D00005F803B0238801339BB223808A5AEA547D
:1002E000E918120A4A702088023080B22080B9F8DA
:1002F00004205AB1D9F80810002993D0284418F0E6
:10030000C5FC2388B9F804201344238096F82C20D8
:1003100008F101085FFA88F39A42C5D823E709215A
:1003200056E79F42FBD2ADF8087050E730B5C8B130
:10033000F2B10024651C8D4206DA1588A54212D858
:1003400005196D789D420ED1A14211D9005D48B1C9
:10035000013880B230B10234A3B210FA84F4A14261
:1003600006DB138030BD055D01352C44A4B2E1E706
:100370000020F7E713B513460022ADF806200DF173
:1003800006020446FFF7D2FF10B1BDF80630E018B0
:1003900002B010BD72DF704773DF704738B50122BD
:1003A00004460D46B0F8D810D0F8D400FFF7E2FFAD
:1003B00000B1057004F13C0204F1D40104F15400D1
:1003C000BDE83840FFF7E6BF80F830107047F8B559
:1003D00004460F46002966D0002864D091F87A3090
:1003E0001BB191F89830002B5FD1D7F8A030042BC7
:1003F0005BD0D7F89C30042B57D04FF0000C84F81A
:1004000002C007F178060FCE251D0FC50FCE0FC510
:1004100096E8070085E8070084F830C0D7F8A430D4
:100420006363D7F8A830A36304F1D4024FF6FF73D7
:10043000C4F8EAC0A4F8E830C4F8E420C4F8EDC079
:1004400022780AB984F85430224604F155011F2558
:10045000C4F8D410384622F8D85FFFF79DFD08BBDA
:10046000224604F19301C4F8DC1007F13C0022F8A5
:10047000E05FFFF791FDA8B9A369A4F848304FF4F5
:1004800080730125A4F8503063692064014684F824
:100490003C50636404F13C0204F15400FFF77AFF1E
:1004A00000B92570F8BD0E20FCE70720FAE7F8B583
:1004B000077804460D46002F00F0F6800023C0F8B0
:1004C000EA30C0F8ED30C388817000F1EA060BB164
:1004D000012903D0E37943B1022D06D1636BABB19F
:1004E000012284F8F1200820984704F1EB0304F17D
:1004F000F10113F8012B12B99942FAD117466B1E7C
:10050000032B4ED8DFE803F0050B0F1284F8F1300F
:10051000EBE7A3791BB194F8243003B95FB9E37911
:100520000BB1002F3FD1237A002B3ED1637A002BF1
:100530000CBF00250425636BA570002B37D0033D4D
:10054000012D34D8627992B394F8F2207ABB84F802
:10055000F420012284F8F3200720984704F13C0599
:1005600018220021284618F091FDE26A531E01214D
:10057000022B94F8243084F83C1028BF0A4684F8F3
:10058000512033B1A36A5A1E022A28BF0B4684F8B1
:100590005230A378042B1CD8DFE803F06D0D233311
:1005A00053000025C7E70225C5E70325C3E700235D
:1005B00084F8F330D2E7012384F831300023C4E912
:1005C0001063C4F8E430022384F83C308023A4F89C
:1005D0004830A378002B52D1636B002B60D10020F0
:1005E0005DE0022384F83130032384F83C30236932
:1005F000A4F848300023C4F8E430E3682664636458
:10060000E7E763696364A369A4F848306379B3B129
:1006100094F8F2309BB994F8F43083B1022384F853
:10062000503004212046FFF7B9FE0028D1D1052320
:1006300084F8313004F1D403C4F8E430C9E703236B
:10064000F6E7E3696364236AA4F84830637983B109
:1006500094F8F2306BB994F8F43053B1022384F873
:10066000503004212046FFF799FE0028B1D106231F
:10067000DEE70423DCE7002384F83130A9E7D4F86F
:10068000E4102A4604F15400FFF784FE38B994F8C8
:10069000301094F85400FFF77FFE00289CD0F8BD7E
:1006A00094F8310098479AE70820F8E70388112B5F
:1006B00010B50C460AD0262B1FD0102B05D1C37BBA
:1006C000012B02D18388A1F8E83010BD0022838875
:1006D00081F8F220B1F8E8209A42F6D10B79002B8C
:1006E000F3D101212046FFF7E2FE0028EDD0A36BF5
:1006F000002BEAD0BDE810401847037A013B012BDC
:10070000E3D8897805230131B1FBF3F303EB8303CD
:10071000C91AC9B2E6E7F0B50E4685B015460446DB
:1007200000284ED00378002B49D009B9002A48D0C0
:1007300010220021684618F0A9FCBEB95DBB04F187
:10074000D4056E462A4604AF334603CBBB42106045
:1007500051601E4602F10802F6D1C4F8E4500022AE
:10076000294604F15400FFF715FE12E0D4F8E430F6
:100770001B6804F155018B4208BF04F174011F236B
:1007800001AA30460091ADF80430FFF705FC0028BF
:10079000D4D005B0F0BDD4F8E4309B6804F19301E7
:1007A0008B4208BF04F1B2011F2303AA284602911D
:1007B000ADF80C30FFF7F0FB0028C0D0E9E70820C7
:1007C000E7E70E20E5E775DF704776DF70477ADFF1
:1007D00070477BDF70470000034B1A8882420CBFD2
:1007E00018460020704700BFF0470020024B9B696D
:1007F00003B11847704700BFD447002073B585B2D6
:100800002846FFF7E9FF044638B3174E027A337BD8
:100810009A420CD200F10A012846FFF7D4FFF0B14A
:1008200011281AD002B0BDE87040FFF7DFBF0023E7
:100830000372337C43B13B212846FFF7C6FF30F0FB
:10084000080301D0FFF7D2FF736933B100228DF89E
:100850000420ADF8065001A8984702B070BD237A75
:1008600001332372F9E700BFD447002037B50B46A8
:10087000497A0F4A79B9D2E901141D7A0246002D4E
:1008800018BF2146586809F093FF78B103B0BDE85E
:100890003040FFF7ABBF00211972536933B1012219
:1008A000ADF806008DF8042001A8984703B030BDCC
:1008B000D44700204B8802889A4212D842889A4234
:1008C0000FD380888B8840F2F311884294BF021ABC
:1008D000421A9A4205D80844984234BF00200120A9
:1008E00070470020704700000388122B70B5014646
:1008F00059D004D8102B1ED0112B44D070BD502BD2
:10090000FCD12F4BC288DB899A42F7D1038A022B94
:10091000F4D186883046FFF75FFF05460028EDD00A
:1009200001F1120000F02BFA38BB686809F08CFF67
:100930000028E3D009E0C37B012BDFD14FF6FF7025
:10094000FFF74AFF054620B90420BDE87040FFF7D5
:100950004DBF1C4A8E880680002303721368C0F8BE
:100960000A305368C0F80E3010310A30FFF7A2FF8A
:10097000134B6872DB89002BC0D129463046BDE895
:100980007040FFF773BF8088FFF726FF04460028FA
:10099000B4D0406809F058FF08B1FFF727FF4FF6C1
:1009A000FF732380AAE786883046FFF715FF0546C8
:1009B0000028A3D008310A30FFF77CFF6872DCE71B
:1009C000D447002004480020F8B5064648B3054641
:1009D0000FCD154F3C460FC495E8070084E807008B
:1009E0003068124C3C60B0B1FFF7F1FEC0B932681C
:1009F00013682360536863600D480E4A4FF6FF7317
:100A000003800D4B40F8043F002109F0BFFE002891
:100A100018BF032004E02046FFF7DBFE0028EBD0E0
:100A2000F8BD0E20FCE700BFD4470020044800209A
:100A3000F0470020FD0702000C48002008B5064BD7
:100A4000586809F001FF042804D030F0080018BFEE
:100A5000032008BD1120FCE7F0470020F7B517463A
:100A600001900E4691B1019C6CB100252C4629469F
:100A700001A80AF004F818B13946A8B2B047013409
:100A80000135142DF3D1204603B0F0BD0C46FAE732
:100A90000AB109F0D3BF09F0E8BF73B50191019C19
:100AA00006466CB100252C46294601A809F0E7FF4F
:100AB00018B106EB440301349D800135142DF3D1A8
:100AC0003046346002B070BD2DE9F043038884885D
:100AD000103B8DB00A2B1ED8DFE803F006361D1D33
:100AE0001D1D1D1D1D5B3D002E4FBB68DB4300938C
:100AF000796868460AF028F8009901A8FFF7CDFF49
:100B00000DF108080026019B9E4207D3132C12D931
:100B1000042009F0E7FB0DB0BDE8F08338F8029B34
:100B200000250135494607EB850009F09EFF1E2D83
:100B3000F7D10136E7E721461B4809F07FFF1B4844
:100B4000214609F07BFFE6E7174821460DB0BDE8D6
:100B5000F04309F08ABF027A15483F2A4FEA12157E
:100B6000214694BF00220122FFF792FF022D94BF7D
:100B7000002201220F482146FFF78AFF012D0E486F
:100B800094BF0022012221460DB0BDE8F043FFF7DB
:100B90007FBF037A002BBED1427A0548C2F3C00260
:100BA0002146F1E72C48002034480020304800203E
:100BB00044480020404800203C48002013280146BB
:100BC00002D8024809F05BBF00207047304800207F
:100BD000FFF7F4BF07B50190FFF7F0FF019930B1BF
:100BE000044809F04CFF002814BF0220012003B084
:100BF0005DF804FB3448002007B50190FFF7DEFFE5
:100C0000019928B1044803B05DF804EB09F037BF3F
:100C100003B05DF804FB00BF3C48002007B501901D
:100C2000FFF7CCFF019928B1044803B05DF804EB4D
:100C300009F025BF03B05DF804FB00BF4048002069
:100C400007B50190FFF7BAFF019928B1044803B036
:100C50005DF804EB09F013BF03B05DF804FB00BFBF
:100C60004448002010B5034B04465968FFF715FFB0
:100C7000204610BD2C48002010B50446FFF79EFF0B
:100C8000002814BF2046142010BD000008B518210C
:100C9000024809F0FDFEC0B208BD00BF2C4800208C
:100CA00070B50A4E054630460C4609F0E8FE58B1CC
:100CB0002846FFF783FF38B10734294606EB840046
:100CC000BDE8704009F0DBBE002070BD2C4800205C
:100CD000F8B50B4F054638460C46164609F0CFFED0
:100CE00060B12846FFF76AFF40B107343246294613
:100CF00007EB8400BDE8F840FFF7CABEF8BD00BFAF
:100D00002C480020034B9B680A4601461846FFF713
:100D1000A5BE00BF2C48002073B50B4D01920446C0
:100D20000E460146284609F0AAFE50B1063405EBEE
:100D30008404019A6068314602B0BDE87040FFF754
:100D40008DBE02B070BD00BF2C480020AADF7047E6
:100D5000ABDF7047002301380B70042806D8DFE8AA
:100D600000F00306080A0C0011230B7070472123C2
:100D7000FBE73123F9E71223F7E72223F5E70088A1
:100D800000F0010070470088C0F3400070470B7806
:100D900003704B7843700220704738B5044608460C
:100DA0000D4618F0C8F96560208038BDF0B58B7825
:100DB00091B00C46012B38BF012300278DF80E306F
:100DC00005460B88607CADF80C306946ADF80070C4
:100DD0008DF80270FFF7BEFFA07C0DF10101FFF757
:100DE000B9FF1646237BE27B217D43EAC203227CC6
:100DF00043EA02139DF80220B94222F0190203F0DF
:100E0000190314BF02210121134361F342031C2281
:100E1000394609A88DF8023018F038F9637B13F0D1
:100E2000300F14D00DF10901E07CADF808708DF899
:100E30000A70FFF78FFF11238DF808309DF80A30F4
:100E4000012102AA61F342038DF80A300E92637BFE
:100E50008DF82430A37B8DF825300023CDE90633AF
:100E6000089303AB0493A388ADF81C30A368CDF8B6
:100E700014D01BB1E288ADF818200893A36973B3AE
:100E800001A90022ADF804208A701A88ADF82C2040
:100E90005A88ADF82E205A680D91187B0A92FFF7F8
:100EA00059FFA3690DF10501587BFFF753FFA369B3
:100EB0009A7A197A41EAC201DA7A9B7B41EA0211F5
:100EC0009DF80620002B01F0190122F0190214BF31
:100ED00002230123114363F342018DF80610E369F5
:100EE00003B10C93334604AA09A92846FFF72EFF45
:100EF00011B0F0BDF0B50C4689B01646102205467B
:100F000000210DEB020018F0C1F8A378A079012BA5
:100F100038BF01238DF80A3001AF2388ADF80830BF
:100F2000394602AB0393FFF715FFE0790DF1050198
:100F3000FFF710FFE2786379217A049743EAC2034E
:100F4000227943EA02139DF80620002922F01902B3
:100F500003F0190314BF02210121134361F342037B
:100F60008DF806306389ADF81430A389ADF81630DA
:100F7000E389ADF8183032462369079303A9284660
:100F8000FFF7E6FE09B0F0BD70B505461646084607
:100F90000AB90E2070BD00231360002DF9D02B6814
:100FA000002BF6D0EB8813F003040ED1FFF764FE9C
:100FB000C0B214280BD02B7983420AD9EA882B6857
:100FC00000FB023030602046E4E70720E2E705201E
:100FD000E0E70420DEE79BDF70479DDF70479EDF80
:100FE0007047A1DF7047A3DF7047AEDF704730B5B1
:100FF000048800239AB2944206D9456835F8135004
:101000008D4203F10103F5D1104630BD8B6910B557
:101010000C461988142913D8023189B20AF04DF808
:10102000606078B1A169002302220AF087F8A26902
:1010300060681288E16902230AF080F8002010BD80
:101040000920FCE70420FAE710B50C46C98A1429E8
:101050000AD80AF032F8606040B1E28AA169002340
:101060000AF06CF8002010BD0920FCE70420FAE724
:10107000F0B58BB004460022C068124E0DF1060197
:101080000BF0BDFE142508B10BB0F0BDBDF8063065
:10109000A76805FB0377002202A938460BF0AFFED4
:1010A00030B1E06800220DF106010BF0A8FEEAE77E
:1010B0009DF8083056F82330002BECD0039809F047
:1010C000E6FFE8E7ACB70300F0B58FB00D460122AC
:1010D00006A906460BF093FE044690B99DF8183019
:1010E000052B4FD8DFE803F0030F1C24292EBDF891
:1010F0002A20BDF828102846FFF773FF0446112C5C
:1011000040D10FB0F0BD01A90798BDF82E200C9179
:1011100000230AF01DF80AA92846FFF764FFEDE74F
:10112000BDF828100DF12A022846FFF754FFE5E725
:101130000AA92846FFF751FFE0E70AA92846FFF76A
:101140004EFFDBE70DF1020401AB214607980D933A
:101150000222002309F0FCFFBDF802200D99079838
:101160000C94022309F0F4FF0AA92846BDF8027086
:10117000FFF73BFF04460028C1D1BDF80230BB4257
:1011800018BF0C249DF818200A4B53F8223013B1D5
:10119000079809F07CFF002206A930460BF02FFECD
:1011A000002CAED0089B002BABD009992A462046D4
:1011B0009847A6E7ACB703002DE9F8430F4614465D
:1011C000054620B94FF00E084046BDE8F8830029D7
:1011D000F8D0FFF74DFF3B78052B5FD82146284616
:1011E000FFF705FF2B88834258D014264643A86892
:1011F00030440BF0FDFD002855D03B78052B38D846
:10120000DFE803F00311171E242A7A8A398A204660
:10121000FFF7E7FE112846D058B3BB684BB3F96817
:101220002246984725E007F110012046FFF7DBFE34
:10123000F0E7398A07F112022046FFF7CCFEE9E712
:1012400007F110012046FFF7C8FEE3E707F11001A0
:101250002046FFF7C4FEDDE7BB6907F11001204619
:10126000B3F80080FFF7C1FED8B9BB691B884345BE
:1012700002D14FF00008A7E70C20CEE7286900282C
:10128000A0D0394698478046A0B19DE73B7859F8F1
:101290002330BBB1786809F0FAFE13E04FF007087D
:1012A00092E71128B9D1DFF828903B7859F823301C
:1012B000002BE3D1A868394630440BF031FD80465D
:1012C0000028E3D1A86821463044FFF7FDFE7BE704
:1012D000ACB70300F8B50D46044678B3FFF7C8FE77
:1012E00029462046FFF783FE2288824211D0002043
:1012F000F8BD616831F81310814203F101030BD08E
:10130000208800234FF6FF769AB282420BD3042046
:10131000EEE700234FF6FF7099B28A42E9D82069C0
:1013200009F0B3FEECE761685A0001EB43078A5A03
:10133000B24203F10103E7D13D80D8E70E20D7E7A1
:1013400037B50C4608B301B30588112D15D1818836
:101350002046FFF74CFE2388ADF80600834214D0E8
:10136000112D14D163684FF6FF7223F810200DF190
:101370000601E0680BF0D4FC07E0A5F130031F2B59
:10138000E5D9A5F150031F2BE1D903B030BDA36807
:10139000142202FB0030FFF797FEF6E730B50B4B47
:1013A00019680B4B0022914201D1002009E09D7881
:1013B0008478A54206D11D880488A54202D1054B38
:1013C000186830BD01320433EDE700BFB04800209B
:1013D000B4480020A84800202DE9F84F90F8C6A294
:1013E0004FF0760B04460AFB0B0088469146FFF748
:1013F000D5FF074668B3D4F8CC52052D29D804EBA5
:10140000C5165A46A6F8D2920BFB0A4106F535706E
:1014100017F03CFCB8F1000FC6F84C730E4F14BF28
:101420000023022386F8D0323B6801359D42C4F880
:10143000CC520ED104F534750026EB6F2846984740
:101440003B6801369E4205F18005F6D30023C4F8BF
:10145000CC32BDE8F88F00BFB048002030B5A1B055
:1014600004460D467C22002101A817F00FFE03233D
:101470008DF80430044BADF806501B6802940BB194
:1014800001A8984721B030BDA84800202DE9F041BF
:10149000074691F8C60276234FF00008A0B081F805
:1014A000C88200FB03100C461546FFF777FF06467F
:1014B00060B17C22414601A817F0E8FD01238DF8B8
:1014C0000430ADF80650029701A8B04729462046DF
:1014D00020B0BDE8F041FFF7C1BF000030B50446C1
:1014E0008BB00D462022002102A817F0CFFD94F802
:1014F000C53294F8C61213B3013BDAB276234B43DC
:10150000122000FB023323445B8A01339BB2ADF807
:101510000430762303FB01412A460B89ADF80630DF
:1015200003238DF80830019BCDE90543064B049356
:10153000064B02A91868FFF73FFE0BB030BD7623BB
:1015400003FB0143DB88E2E78D140200CC48002056
:10155000F0B5044689B020220D466846002117F0F8
:1015600095FD94F8C7321E4A01331268DBB29342EC
:1015700084F8C7324FF000022AD294F8C632194FCD
:1015800084F8C5220133DBB2762113FB01F057F852
:10159000237084F8C632261827504B433271E35823
:1015A000CDF81230104B02930222104B8DF8002020
:1015B0000122ADF81020186803942A466946FFF707
:1015C000FBFD18B12A462146FFF760FF09B0F0BDC8
:1015D00084F8C82229462046FFF740FFF6E700BFFF
:1015E000B0480020B44800208D140200CC480020F0
:1015F0002DE9F047044688B00D461646002120220A
:10160000684617F043FD94F8C6C294F8C5127623D5
:101610001CFB03F2A0184FF0120E07791EFB0123EA
:1016200001F1010C0A33BC4523441CD004F11C0C0D
:1016300000F1220807F1FF399444CAB2974216D943
:1016400089451B8919D00EFB01FA013338F80A20AD
:1016500093422AD10CEB0A0394F8C522013284F894
:10166000C5220131E9E71B890289934208D1012390
:101670002B70002008B0BDE8F0870289934218D093
:1016800001339BB2ADF810300B4B029300210B4B92
:10169000297004218DF80010ADF812201868039409
:1016A00032466946FFF788FDE4E7013A9BB292B201
:1016B000E8E70023D0E700BF8D140200CC480020EB
:1016C00010B570B1026862B1436853B10649002099
:1016D0000860064901240C7005490A60054A136038
:1016E00010BD0E20FCE700BFB0480020AC48002031
:1016F000A8480020CC48002010B5044680B10C4B0F
:101700001B787BB1FFF74AFE70B90A4A1368052BB4
:101710000CD80949246841F823400133136010BDF7
:101720000E20FCE70820FAE70020F8E70420F6E79F
:10173000AC480020B0480020B4480020F0B50D4669
:101740008BB0044600283BD0204B1B78002B39D0AF
:101750001F4B1B68002B35D090F8C812002933D1DD
:101760004FF4BA621B4F019117F090FC01992022AF
:1017700002A817F08BFC38682946FFF7ABFDE8B9E3
:10178000154BC4F8CC0284F8C502A4F8C602186848
:10179000206002238DF808300126104BCDF81A0086
:1017A000A4F8CA523868ADF818602A4602A9059410
:1017B0000493FFF701FD08B984F8C8620BB0F0BDCF
:1017C0000E20FBE70820F9E71120F7E7AC480020DE
:1017D000B0480020CC480020B44800208D140200FE
:1017E0002DE9FF410C46054660B159B1974B1B7876
:1017F00043B10388322B67D007D8112B00F0188132
:10180000302B1FD004B0BDE8F081332BFAD1828891
:10181000B1F8CA329342F5D1C08891F8C6C291F8A6
:10182000C562002800F0C080762101FB0C41002336
:1018300009798DF80F30731C8B4200F0E68084F834
:10184000C532A5E08388B1F8CA229A42DAD1C388AA
:101850007BBB91F8C632762202FB03130269C3F800
:10186000062091F8C432827A1344062B0EDC81F8EC
:10187000C432A9882046FFF731FE0028C2D0AA88CA
:10188000214604B0BDE8F041FFF700BE062381F811
:10189000C4326F486F4B7049C01AC008000440F052
:1018A0000200019008F092FB6C49019808F08EFB51
:1018B000DFE720460021FFF78FFDA988204604B00E
:1018C000BDE8F041FFF744BE8288B1F8CA329A42BF
:1018D00098D1C388002B57D191F8C672762317FB95
:1018E00003F701EB0708837A98F804603344062B6A
:1018F00025DC88F80430122212FB0672334605F10B
:101900000C012244002098F80460B34201F10A015E
:1019100002F1120227D31222013B02FB034394F887
:10192000C62276213B4401FB0242598A138999421F
:101930002AD2062E28D0A98884F8C5629AE7062301
:1019400088F804304248434BCA5B4549C01AC00876
:10195000000440F00200019008F03CFB414901986E
:1019600008F034FBC7E751F80A6C42F8086C51F8EC
:10197000066C42F8046C31F8026C1680508090803E
:10198000D08010810133BEE7002384F8C532AA88D5
:101990000DF10F012046FFF72BFE002842D0AA8848
:1019A0002146FFF773FD2DE7762303FB0CF3122787
:1019B00007FB0633B5F80AE0294623447045BFF417
:1019C00033AFCF89A7F52457082F08D8DFE807F0F1
:1019D00014170507070707071A008F899F829F8A38
:1019E0003FB1DF8A2FB11F8B1FB15F8B002F7FF4B8
:1019F0001BAF01300631E1E78F89DF82EFE78F8986
:101A00001F83ECE78F895F83E9E701238DF80F30AF
:101A10002046AA880121FFF7DFFCA9882046FFF7AE
:101A200097FDEFE69DF80F30002B3FF4EBAEEFE7AC
:101A3000B1F8CA3282889A4201BF002381F8C832C5
:101A40004FF6FF73A1F8CA32DCE600BFAC480020B5
:101A50008C99030014990300C4B70300E3B7030093
:101A600028B803006EB8030090DF7047A5DF704709
:101A7000B5DF70477FB50023ADF80810ADF80A1048
:101A80006A4602A90646ADF80C30ADF80E30009358
:101A9000ADF80430FFF7E8FF054600B3114B124CD8
:101AA000E41AE40809F0D2FC240444F001040346DB
:101AB0000E493246204608F096FABDF80020BDF8DF
:101AC000023052EA030103D00949204608F08BFA9C
