:020000021000EC
:10C000000000012019C2010001C2010003C20100A9
:10C0100005C2010007C2010009C2010000000000C2
:10C020000000000000000000000000000BC2010042
:10C030000DC20100000000000FC2010011C201008A
:10C040001573020013C20100B97A02004191020087
:10C050005191020013C2010041790200058C0200D7
:10C0600013C20100757F0200857F020013C2010028
:10C0700013C2010013C2010013C2010013C2010068
:10C08000F9830200E1B2020013C2010013C20100F1
:10C090007DB3020013C20100359A0200B997020075
:10C0A00013C2010013C2010013C2010013C2010038
:10C0B00013C2010013C201000000000000000000D4
:10C0C00013C2010013C2010013C20100997A0200D9
:10C0D00013C2010013C2010013C2010000000000DE
:10C0E0000000000000000000000000000000000050
:10C0F0000000000000000000000000000000000040
:10C10000000000000000000000000000000000002F
:10C11000000000000000000000000000000000001F
:10C12000000000000000000000000000000000000F
:10C1300000000000000000000000000000000000FF
:10C1400000000000000000000000000000000000EF
:10C1500000000000000000000000000000000000DF
:10C1600000000000000000000000000000000000CF
:10C1700000000000000000000000000000000000BF
:10C1800000000000000000000000000000000000AF
:10C19000000000000000000000000000000000009F
:10C1A000000000000000000000000000000000008F
:10C1B000000000000000000000000000000000007F
:10C1C000000000000000000000000000000000006F
:10C1D000000000000000000000000000000000005F
:10C1E000000000000000000000000000000000004F
:10C1F000000000000000000000000000000000003F
:10C20000FEE7FEE7FEE7FEE7FEE7FEE7FEE7FEE706
:10C21000FEE7FEE700F002B8FFF7FCBF0F484FF063
:10C220000701884385460E4880470E48016841F45F
:10C2300070010160BFF34F8FBFF36F8F00F01AB82A
:10C2400009480A490A4A884207D0521A05D0037899
:10C2500001300B700131013AF9D170470000012023
:10C2600011E1020088ED00E0E4AB0300D0320020D1
:10C27000E4320020354936480A1A02D00722914399
:10C280008D46344934480A1A06D00722914381F377
:10C290000988022282F3148830483149314A00F07B
:10C2A00044F831483149324A00F03FF831483249C8
:10C2B000324A00F03AF832483249334A00F035F851
:10C2C00032483349334A00F030F833483349344A6E
:10C2D00000F02BF833483449344A00F026F834484B
:10C2E0003449002200F02CF833483449002200F091
:10C2F00027F833483349091A082902DB0022026073
:10C300004160314A90471F481F49884205D0026862
:10C31000043003B4904703BCF7E700208646EC46A0
:10C3200000200021294A9047FEE7884207D0521A90
:10C3300005D0037801300B700131013AF9D1704713
:10C34000884202D002700130FAE7704700000120F5
:10C3500000F0002098DF002098DF00208C5E0400B1
:10C36000E4320020243C0020D0C30100D0C30100EF
:10C3700010A903008C5E0400E4320020E4320020A7
:10C38000F8AB0300F8AB0300F8AB0300F8AB030015
:10C39000F8AB0300F8AB0300F8AB0300F8AB030005
:10C3A0008B5E0400CC670400243C0020243C002069
:10C3B000243C002094D7002094D7002098D7002058
:10C3C00098D7002098DF002041C20100A901020097
:10C3D00077DF70477047000038B5204B20491D7843
:10C3E000204C214A6160012D0CBF002304230B70F7
:10C3F0001E4BC4F8A4301E4B23669A604FF0110206
:10C400009A8008BF05204FF0020218BF0420227056
:10C41000E070CDB1012D04D1164B23650423A4F89F
:10C420004C3015482C2200211DF0A8FE012384F871
:10C430007C3075B19D4206D1C823C4F888304FF4D2
:10C440004873C4F88C3038BD0C4B2365A4F84C20DD
:10C45000E7E76423C4F88830B423F2E7E43200202D
:10C46000D43D0020303C0020F8AB0300D5C30100D0
:10C47000243C0020EE320020A83C0020E6320020C0
:10C4800008B5FFF7A9FF0E490E4804F000FA18B1ED
:10C490000D4AAD210EF042FE0C4B93F90020094BE2
:10C4A000012093F85410FFF793FF18B1064AAE210C
:10C4B0000EF034FEBDE808400248012104F0E4B962
:10C4C000303C0020DC3C002009AC0300D43D0020BF
:10C4D00008B5042002F070FFBDE8084001480321C0
:10C4E00004F045BADC3C00202DE9F8431B4B012247
:10C4F0001A70FFF771FF1A4A1A48A2F13C0104F0C2
:10C500006AFB18B1184A9C210EF008FE174E184F0E
:10C51000DFF850800F2546F0010697F9002098F8C3
:10C5200054100120FFF754FF4FF0640904464FF404
:10C530007A40B047B9F10109F9D1013D15F0FF0585
:10C5400006D13CB1084AA22120460EF0E7FD01E0E9
:10C55000002CE2D1BDE8F843FFF7BABFE432002077
:10C560006C3C0020DC3C002009AC030050AC030014
:10C57000D43D0020A8DF7047ACDF704762DF704712
:10C580002DE9F04389B006460C469046002114225E
:10C5900003A81F46DDF84090134D1DF0EFFD134832
:10C5A000338900932D1AED0814F80C3F104A1149F5
:10C5B00004962D0445F003000EF0FFFB204604F026
:10C5C00042FE58B1012389F800308DF80C80736861
:10C5D000002103A8984709B0BDE8F08389F800005E
:10C5E0008DF80C70F3E700BFB4AA030034AA03006F
:10C5F00033AE030056AC030037B513460022ADF846
:10C600000220ADF8001001906A4619464FF6FF70FF
:10C61000FFF7B2FF054668B10FF0D0FF074C084A9C
:10C62000084903460848241AE408240444F0010099
:10C630000EF0B9FB284603B030BD00BFB4AA03001A
:10C6400026AE030077AC030034AA03002DE9F043C3
:10C650002B4B87B002AA05460F4603F1100C164675
:10C6600018685968144603C4083363452246F7D155
:10C67000002D42D0002F40D0224BFA681A60224B86
:10C68000D7F81080C3F800803B686B6029463046BD
:10C69000FFF774FF044660BB2A4601A912F8023B6B
:10C6A0008DF8063001204FF6F073ADF80430FFF737
:10C6B00061FF0446E8B9154E7B68B360DFF850901F
:10C6C0003B89F380C6F8488005F10C0705F13C086A
:10C6D0002B78B37068883A46314604F0CBFD18B128
:10C6E0004A469E210EF01AFD0837474506F12006FE
:10C6F000EED1204607B0BDE8F0830E24F9E700BF75
:10C7000001AE0300DC3D0020E03D002000330020AE
:10C710007FAC0300032938B505460C4610461AD8ED
:10C72000CAB1C3B1032918D0012918D0C9B102294F
:10C730000CBF0122FF2205EBC205032CAA8999B286
:10C7400011D0012C11D01CB1022C0CBF0424FF24E9
:10C75000234601F0F3F90E2038BD0A46EBE7042228
:10C76000E9E70522E7E70224F2E70324F0E70B46B6
:10C77000114682891846FFF73FBF704707B5019100
:10C780000421828B0DEB0100FFF736FF03B05DF84B
:10C7900004FB000070B505468CB00C4601B168B9C9
:10C7A000774B7848784A79490095C01AC008000448
:10C7B000234640F001000EF000FB1DE01422002192
:10C7C00002A81DF0DBFC2B8803941B2B0CD80F2B2D
:10C7D00012D9103B0B2B0FD8DFE803F01019760E9F
:10C7E0000E0E0E0E0E0EB619502B1ED0552B00F04D
:10C7F00091803A2B00F09B800CB070BDAB882381F8
:10C80000634B1B6820461968FFF7B8FFF4E74FF643
:10C81000FF7323815F4B00211960998002238DF8FB
:10C82000083002A863689847E6E71422002107A8A9
:10C830001DF0A4FCAB88EA882381A38908949A425E
:10C840000ED12B8A002BD7D005228DF81C2005F1A4
:10C8500012028DF82C300A926368002107A89847CD
:10C860002B8A022BC8D1EB88228B9A4205F106064F
:10C8700012D1494B1B6833B1454B1B681BB119687A
:10C880002046FFF77BFF454B0093062207233146E6
:10C890002046FFF775FEAFE7228D9A4204D1404B48
:10C8A000009308220923F2E7228E9A4204D13D4BDD
:10C8B00000930A220B23EAE7228F9A429CD13A4B3B
:10C8C00000930C220D23E2E72D4B2E4CE41AE408D2
:10C8D00004F014FB240444F003040346334A3449AF
:10C8E00020460EF060FA6B892A8940F2E2414B4300
:10C8F0004A43E9890A2671430191A98900914FF4BD
:10C900007A702C49B3FBF0F3B2FBF0F220460EF044
:10C9100060FA71E71A4B1B481B4A2749C01AC00826
:10C920000004AB8840F003000EF03DFA64E7144BBE
:10C930001448154A2149C01AC0086B8900930004A5
:10C94000AB8840F0030036E70D4B0E4DED1AED08B5
:10C9500004F0D4FA2D0445F00305144A14490346A3
:10C9600028460EF020FA01238DF8083002A86368EB
:10C9700000219847044A124928460EF00BFA3BE77B
:10C9800034AA0300B4AA030052AE0300BBAC0300F8
:10C99000E03D0020D53D0020DC3D0020D63D0020BC
:10C9A000D83D0020D93D0020DA3D002011AE030023
:10C9B000EBAC03000AAD030072AD0300A2AD0300AF
:10C9C000D6AD0300014ADB210EF0A8BB67AE030021
:10C9D000024A4FF415710EF0A1BB00BF67AE030011
:10C9E00007B50146019005480AF06EFA019904481E
:10C9F00003B05DF804EB06F045BC00BFE43D002049
:10CA00008042002037B5037804461BB1032B47D082
:10CA100003B030BD051D418827482A4606F0B3FC07
:10CA200018B1264AEB210EF079FB60880DF1060162
:10CA300008F01AFA18B1214AEF210EF06FFB7622A6
:10CA40001F4800211DF09AFB1E4B2A46143452F851
:10CA5000041B43F8041BA242F9D112881A801A4B16
:10CA600001221A70194B1B787BB11549BDF80600DD
:10CA70000023EC2208F014FB862801D110F094FE6C
:10CA800018B10E4AFA210EF049FB0B48012106F0BD
:10CA9000C3FB0028BCD0094AFD210EF03FFBB7E7DD
:10CAA0000A4A41880A4800231370074A137003B0EA
:10CAB000BDE8304005F0A6B88042002067AE030014
:10CAC000EC420020F6420020A44200204C3F00200F
:10CAD000D833002008B50388102B0AD0112B07D1BA
:10CAE0000A4B81889A89914202D14FF6FF729A814E
:10CAF00008BD8188064806F07CFA0028F8D0BDE819
:10CB00000840044A55210EF009BB00BFE43D002057
:10CB1000D843002067AE030038B50F4D2B7904468B
:10CB2000CBB90E480E4B1B1ADB081B0443F0030065
:10CB30007CB10C490EF02AF929680B4884F00102F7
:10CB40000AF054FB38B1BDE83840084A69210EF0BC
:10CB5000E5BA0749EEE738BDBC42002034AA03001D
:10CB6000BCAA0300A8AE0300E43D002067AE0300AA
:10CB7000C4AE0300F0B5067895B0044626B1022E87
:10CB800000F09C8015B0F0BD80884FF6FF7398428E
:10CB9000F8D0EC235C49019301AA08F048FA052873
:10CBA00005461ED161885948324606F0ECFB18B1A3
:10CBB000574A77210EF0B2FA564B574800211970A8
:10CBC000564B4FF4BA6219701DF0D8FA618852487A
:10CBD00005F018F80028D5D04D4A7E210EF09EFAB7
:10CBE000D0E7019BEC2B03D04949822003F0D4FA13
:10CBF00025B1474A832128460EF090FA484B494810
:10CC00004949C01AC008000440F003000EF0BEF805
:10CC1000464B02AD03F110072A46186859682E46A4
:10CC200003C60833BB423546F7D11B883380618881
:10CC3000364806F0A8FB18B1354A89210EF06EFA85
:10CC40003248012106F0E8FA18B1314A8D210EF080
:10CC500065FA2D4BD3F88000D3F8841009AA03C2DB
:10CC6000B3F888101180D3F89220CDF82E20D3F895
:10CC70009620CDF83220B3F89A20ADF83620B3F8DC
:10CC80009C20ADF83820D3F8A420CDF83E20D3F86E
:10CC9000A820CDF84220B3F8AC20ADF84620B3F878
:10CCA000AE3061882248ADF8483007AA0AF0D3FABE
:10CCB00000283FF467AF164A9A218FE7134842894C
:10CCC000002A7FF45FAF618806F05DFB18B1104A5F
:10CCD000A5210EF023FA0F4B0F48002119700F4BBE
:10CCE0004FF4BA6219701DF049FA61880A4804F0DD
:10CCF00089FF00283FF446AF054AAC2115B0BDE8D6
:10CD0000F0400EF00BBA00BFEC4200208042002041
:10CD100067AE03004C3F0020D8330020A44200201F
:10CD200034AA0300BCAA0300E0AE0300F6420020D0
:10CD3000E43D002007B5074B00936846064B01937E
:10CD400004F022FF18B1054AD2210EF0E7F903B032
:10CD50005DF804FBE1C90100C033002067AE0300A9
:10CD60002DE9F84F90F80690B9F1010F074629D147
:10CD70006A4B6B4C02686B496B4DE41AE40824045F
:10CD800044F0030420460EF005F8002367494FF0F5
:10CD9000FF3220460EF007F83B79ABB1022B32D0C0
:10CDA000614E634F00253379002B40F0B480336827
:10CDB0002A463946204601350DF0F5FF052D06F1CE
:10CDC0000806F0D1BDE8F88F5A4B1B6803B19847AD
:10CDD00059495A4E0B7805220133B3FBF2F202EBAC
:10CDE00082029B1A3A6845F8332005EBC3050B70A5
:10CDF0000021297195E8030086E803005049204688
:10CE00000DF0D1FFCCE7DFF8308198F8003005EB6A
:10CE1000C302167956BB55F833303A68934226D18F
:10CE20001A46484920460DF0BEFF98F800303A688F
:10CE3000454920460DF0B7FF98F8003005EBC302D6
:10CE4000013B82F80490052293FBF2F202EB82028E
:10CE50009B1A88F80030DBB205EBC30595E80300A8
:10CE6000364A82E8030039490246C8E70026DFF85F
:10CE7000D4A0DFF8D4B005EBC60999F80430E3B9C3
:10CE800055F836303A68934217D11A465146204633
:10CE90000DF089FF012355F8362089F804305946F2
:10CEA000334620460DF07FFF244A98F80030126880
:10CEB000274920460DF077FF05260136042EDADDDE
:10CEC00005261E4FDFF88CA0B14698F8002005EB30
:10CED000C2031B79002B3FF463AF013A92FBF9F3D5
:10CEE00003EB8303D21AD2B2013A92FBF9F303EBBC
:10CEF0008303D21A88F80020D2B205EBC20393E86C
:10CF0000030087E803000346514620460DF04BFF1F
:10CF1000013EDAD144E700234AE700BF34AA030008
:10CF2000BCAA030003AF0300C442002013AF0300F8
:10CF3000A9AF0300F84300207C420020BC4200203F
:10CF40001AAF030033AF030051AF030077AF030004
:10CF50006FAF03009AAF030037B503780446062B82
:10CF600000F28280DFE813F007008000820080007A
:10CF7000D90000011001418800F1400298480AF0F0
:10CF80006AF920B1974A4FF4E9710EF0C7F860884A
:10CF90000DF1060107F068FF20B1924A4FF4EB71E2
:10CFA0000EF0BCF8904D76220021A8181DF0E6F88E
:10CFB00004F1480303CB1B88A5F88830D4F852301D
:10CFC000C5F89230D4F85630C5F89630B4F85A30D7
:10CFD000A5F89A30B4F85C30A5F89C30D4F86230EB
:10CFE000C5F8A430D4F86630C5F8A830B4F86A3073
:10CFF000A5F8AC30B4F86C30A5F8AE307B4BC5F872
:10D00000800001221A707A4BC5F884101B7883B116
:10D01000BDF806000023EC22294608F041F88628D6
:10D0200001D110F0C1FB20B16E4A4FF4F5710EF042
:10D0300075F8704D642445F001054FF47A40A84717
:10D04000013CFAD166480AF075F820B1654A4FF400
:10D0500091710EF063F862480AF086F820B1614AD7
:10D0600040F225110EF05AF803B030BDD0E90101AD
:10D07000614D624C85E8030061486249241AE40866
:10D08000240444F0030420460DF080FE5E4B2A7910
:10D090005E4953F8222020460DF07CFE5C4BAA79B5
:10D0A0005C4953F8222020460DF074FEEA795A4973
:10D0B00020460DF06FFE2A68584920460DF06AFEA2
:10D0C000574920460DF062FE6B79DB0703D55549C1
:10D0D00020460DF05BFE6B79980703D55249204638
:10D0E0000DF054FE6B79590703D5504920460DF0D9
:10D0F0004DFE6B791A0703D54D4920460DF046FECB
:10D100006B79DB0603D54B4920460DF03FFE3A48CC
:10D1100003B0BDE83040FFF723BE103494E80700A9
:10D12000454B364C83E807003548241AE408188834
:10D13000424B240444F0030468B1104653F82150D4
:10D140000DF076FC3E4903462A46204603B0BDE872
:10D1500030400DF028BE53F821203A49204603B054
:10D16000BDE830400DF016BE254B2448C01AC0085B
:10D17000238A000440F003001BB1A369324A3049FE
:10D18000E4E7314A2F49EAE78389A3F5D073032BFB
:10D190003FF66AAFDFE803F0020F161D1748184B81
:10D1A0002A49C01AC008000440F0030003B0BDE8DB
:10D1B00030400DF0EBBD1148114B2549C01AC00895
:10D1C0000004F1E70D480E4B2249C01AC0080004C4
:10D1D000EAE70A480A4B2049C01AC0080004E3E7FE
:10D1E000E43D002067AE0300EC4200204C3F0020ED
:10D1F000A4420020C0B20300B4420020BCAA030035
:10D2000034AA0300C5AF030018B30300D4AF030072
:10D21000E8B20300E4AF0300F4AF030004B003007E
:10D2200014B003001BB0030023B003002EB00300B2
:10D230003CB003004DB00300A8420020C8B2030078
:10D240005EB0030065B003006FB003007CB0030064
:10D25000C0B0030002B1030057B1030030B5634B07
:10D260008FB018600023CDE90B330D936048614BFC
:10D270000A930AA905F09BFE20B15F4A40F21B21E8
:10D280000DF04CFF00235D4C08935D485D4B079308
:10D2900007A9099405F0A0FF20B1574A4FF409717E
:10D2A0000DF03CFF0021584A584806912023CDE953
:10D2B000041109F073FF20B14F4A40F229210DF00B
:10D2C0002DFF534A51482023002109F07AFF20B155
:10D2D000494A40F22B210DF021FF4E4A4B482023B2
:10D2E000012109F05BFF20B1434A40F22D210DF0EE
:10D2F00015FF494A45482023032109F04FFF20B17B
:10D300003D4A4FF40C710DF009FF444A3F48202379
:10D31000022109F043FF20B1374A40F232210DF0DB
:10D32000FDFE3F4A39482023042109F037FF20B190
:10D33000314A4FF40D710DF0F1FE3A4A3348202383
:10D34000052109F02BFF20B12B4A40F236210DF0C8
:10D35000E5FE354A2D482023062109F01FFF20B1A4
:10D36000254A4FF40E710DF0D9FE304A274820238C
:10D37000072109F013FF20B11F4A40F23A210DF0B6
:10D38000CDFE2B4B04932B4B204804A9CDE905344B
:10D3900009F080FE1948284C0CF02EFD274BE41AAA
:10D3A0000546E4080FF0ECF8240444F001040146BB
:10D3B00020460DF0EBFC01A921481CF0ADFB014615
:10D3C00020460DF0E3FC2DB10B4A4FF413712846B3
:10D3D0000DF0A4FE1B4A012313711B4A1371137332
:10D3E0001375137782F824300FB030BDF843002056
:10D3F000D8430020D1C9010067AE0300C03300202C
:10D400008042002005CA01004D3F0020E43D00207D
:10D410008D3F00204D400020AD3F00202D400020DA
:10D42000CD3F00206D3F00200D400020ED3F00204B
:10D4300059CF0100C5C90100BCAA030034AA0300EA
:10D44000A0B10300BC420020C4420020012801D149
:10D45000FFF762BB022801D10020F9E77047000006
:10D46000024B187980F00100704700BFBC420020D9
:10D47000014B1878704700BF4C3F0020014AF32150
:10D480000DF04CBE38B303000B78052B09D10548CD
:10D49000054B0649C01AC008000440F003000DF017
:10D4A00075BC704784AA030034AA030078B3030054
:10D4B00070470000F0B52E4C93B00021402202A826
:10D4C000E1801CF05BFE2B4B03934FF482775F836C
:10D4D00040F2031208254FF4817640F2012740F212
:10D4E000022103205A821D80022240F201155E8132
:10D4F00067800126204F188299829980188199812E
:10D5000099839A755D80DA809A731E839A77009763
:10D51000CB231A4F0197ADF824300427184BA18074
:10D5200008938DF833002680ADF808508DF80A7006
:10D530008DF810600594ADF830508DF82C208DF8E2
:10D5400034204FF00233ADF844100E48ADF84010CF
:10D5500069468DF846200F938DF8422005F032FB86
:10D5600020B1094A4FF4D3710DF0D8FD13B0F0BDCE
:10D570003C440020FC43002089D401007DD40100FC
:10D5800056B40300AC39002038B3030007B540F6A9
:10D59000FF739842A8BF18469942A8BF19468DF854
:10D5A000040089B2094AC0F3032040EA01100911BE
:10D5B0008DF805008DF80610D28B0123032101A8F8
:10D5C00000F0BCFA03B05DF804FB00BFAC390020EA
:10D5D00007B5084A8DF804000023128D8DF8053038
:10D5E000032101A88DF8063000F0A8FA03B05DF819
:10D5F00004FB00BFAC39002007B5064A8DF80700D0
:10D60000528E002301210DF1070000F097FA03B0BC
:10D610005DF804FBAC3900200628F7B505460F4637
:10D62000164604D910494FF4E97002F0B5FD2A46B8
:10D630000E4D002439460DF10200CDE900441CF0E6
:10D6400099FBAA8A8DF8006023460821684600F0FD
:10D6500075FAAA8A234608216846CDE9004400F0FD
:10D660006DFA03B0F0BD00BF38B30300AC39002041
:10D67000F0B50746144C1548241AE40885B0240474
:10D68000CDE9007144F0030013460E4615461049DB
:10D69000104A03900DF09DFBB7F5FA7F11D9B6F54E
:10D6A000FA7F0ED96DB10C4B0A4A1F800B4B0C4907
:10D6B0001E8003980B4B1D8005B0BDE8F0400DF0B7
:10D6C00069BB05B0F0BD00BF84AA030034AA030003
:10D6D0008FB303002FB403003E3B0020A839002085
:10D6E000C7B303003C3B00202DE9F047204E214DFD
:10D6F00031882888204F214C3B8849004000B1FBED
:10D70000F3F1B0FBF3F009B200B2FFF73FFF1C4B9F
:10D71000E41AE4080EF052FF240444F00304034624
:10D72000184A194920460DF03EFB184B4FF064088B
:10D7300043F001094FF47A40C847B8F10108F9D124
:10D74000318828883B8849084008B1FBF3F1B0FBD9
:10D75000F3F049424042FFF719FF0EF02FFF094A4C
:10D760000B4903462046BDE8F0470DF01CBB00BF47
:10D77000A83900203E3B00203C3B002084AA030047
:10D7800034AA030012B40300DCB3030050B4030056
:10D79000F7B303007FB5044608F04CF9204607F0C4
:10D7A0000DFF204608F026F86349608807F04EFB1D
:10D7B000624B1B680BB12046984723780C2B00F274
:10D7C000B180DFE803F02D071369AFAF7CAF46AF40
:10D7D000AFAF39005A485B4B5B4A5C49C01AC0087E
:10D7E000000440F003000DF0D5FA1DE0608803A9A5
:10D7F00007F030FB18B1564A38210DF08FFC6088D5
:10D800004F4D03F049FC02464E48237A00932D1AEF
:10D81000ED082D0463884F4945F003000DF0CDFA63
:10D820000021022002F0CAFB204608F02DF90DF07D
:10D8300047F90028FBD173E0BFF34F8F4649474BB0
:10D84000CA6802F4E0621343CB60BFF34F8F00BF9E
:10D85000FDE7237CDB07E7D5237A072BE4D103F030
:10D860004DFB374D374BED1AED080EF0A7FE2D049A
:10D8700045F003050346344A394928460DF093FA2A
:10D88000A08807F0A5FD0EF099FE2F4A3549034602
:10D8900028460DF088FAC7E72A4B294D628932499C
:10D8A000ED1AED082D0445F0030528460DF072FA37
:10D8B0006389852B0DD041F20602934223D007F0F5
:10D8C00089FF1F481F4B294A2949C01AC008000474
:10D8D00087E7284E6088314607F0C6FA0EF06EFEE4
:10D8E000224A2549034628460DF05DFA3088234E2A
:10D8F00007F0E0FBC82546F001064FF47A40B04738
:10D90000013DFAD1DBE760881C4D012107F090FA58
:10D91000C82445F001054FF47A40A847013CFAD1EC
:10D9200004B070BD074A06481549801AC0080004B3
:10D93000054A40F00300ACE7423B0020444400208D
:10D94000C4AA030034AA030064B7030021B503008E
:10D950003CB5030083B5030000ED00E00400FA05C8
:10D96000BAB5030004B603004EB6030049B703007E
:10D9700087B60300403B00206EB60300A0B703004B
:10D98000A0B6030038B50E4B0E4C0F4A0F49E41AEF
:10D99000E408240444F0030420460DF0FBF907F0EA
:10D9A00093FB0B490546024620460DF0F3F935B1CD
:10D9B0002846084ABDE838409E210DF0AFBB38BD6F
:10D9C00034AA0300C4AA030073B70300A8B6030077
:10D9D000BAB603003CB503002DE9F04FA5B00746E9
:10D9E00007F082F918B14A4ABD210DF097FB3123A7
:10D9F0008DF8403007238DF8413010238DF84230E8
:10DA00009DF8433023F0030343F003038DF84330C4
:10DA10009DF8443023F0030343F0030310A88DF86E
:10DA2000443007F0FBF918B1394AB5210DF076FB07
:10DA3000082306934FF6FF72012306A907A807F0F3
:10DA400041FA18B1324A73210DF068FB314B324C68
:10DA5000DFF8DC903149DFF8DCB0E41AE408240494
:10DA600044F00308069B4A4640460DF09CF907AD7A
:10DA70000026069B9E420ED30FB1294B1F602948FA
:10DA800007F0B4F900283FD0214AC72125B0BDE8EE
:10DA9000F04F0DF043BB288810A907F0BDFA70B114
:10DAA0002B8805930EF08AFD059B0090324659465F
:10DAB00044F001000DF081F901360235D9E79DF8F7
:10DAC000523003939DF8533002939DF854300193E4
:10DAD0000DF12C0A9DF855309DF8572012490093FE
:10DAE00050469DF856301CF002F8CDF804A02B8863
:10DAF00000930E4933464A4640460DF06AF90CF051
:10DB0000DFFF0028FBD1D7E725B0BDE8F08F00BFCD
:10DB10003CB5030034AA0300C4AA0300DFB6030027
:10DB20004444002095D7010003B7030021B7030048
:10DB300058B70300F3B60300704700002DE9F04327
:10DB400085B04FF00008042BCDE9018807460C464C
:10DB50009146CDF80C8003D90E2005B0BDE8F083C6
:10DB60000028F9D00029F7D0114E142505FB0365D4
:10DB7000284610F0CBF938B1424601A9284610F0EA
:10DB800051FA02980EF0F4FD012120460EF0C8FD76
:10DB900002900028E0D039462246ADF80440ADF8A6
:10DBA0000C901CF015F901A9284610F0C3F9D4E730
:10DBB0003CB803000A4B10B518804FF6FF7398422B
:10DBC00001460AD0074803F0E9FD044618B1064AA9
:10DBD00048210DF0A3FA204610BD0024FBE700BF4A
:10DBE0005A3B0020443B0020A6B703002DE9F04734
:10DBF0002B4B2C4C2C4FE41AE4088CB0240444F03A
:10DC000003044FF0050801AE4FF000093846C6E99D
:10DC10000099C6F8089010F0F3F9054600283DD1A8
:10DC200002463146384610F0FDF9204BB3F800A00B
:10DC30004FF6FF739A450CD1032502980EF098FD1C
:10DC4000B8F1010807F11407E0D128460CB0BDE88F
:10DC5000F0872946182204A81CF090FA05238DF8B5
:10DC60001030134B0693BDF80C30ADF82030012373
:10DC70008DF822300F48029B0A96524604A90B9356
:10DC800003F0FEFC13280546D7D10EF097FC0A4A94
:10DC90000A49034620460DF086F8CEE70E25CFE769
:10DCA00034AA0300CCAA03003CB803005A3B00206E
:10DCB00039DB0100443B002019B80300E9B7030039
:10DCC00076DF704777DF704778DF70477ADF70471D
:10DCD0007CDF70478FDF704767DF7047014A66213E
:10DCE0000DF01CBAA0B8030008B507F0CFF8064B3A
:10DCF00000280CBF012200221A7004D1BDE80840A0
:10DD0000022002F0BDB908BDA84C002013B51321B4
:10DD10000190FFF7D5FF019A034660B10748084C10
:10DD20000849241AE408240444F0020002B0BDE8C3
:10DD300010400DF038B802B010BD00BF34AA030087
:10DD4000D4AA0300E7B8030010B5044620B932494D
:10DD500040F2032002F020FA23785A1E0C2A4CD8F5
:10DD6000DFE802F0070E5858131929363B3D4244AC
:10DD700049002A4B03201870BDE8104002F080B91A
:10DD8000264B00221A700220F6E7217CE068BDE8ED
:10DD9000104000F00DBC224B2248234A2349C01AF0
:10DDA000C008000440F003000CF0F4FFBDE8104090
:10DDB0001F48FEF7E2BC1B48194B1B4A1D49C01AFD
:10DDC000C0080004BDE8104040F003000CF0E2BFC2
:10DDD0000120BDE8104000F039BF0020F9E7012024
:10DDE000BDE8104000F03CBF0020F9E70120BDE88D
:10DDF000104000F03FBF0020F9E7094A09480E49EA
:10DE0000801AC0080004BDE81040074A40F0020034
:10DE10000CF0C9BF10BD00BFA0B80300C04C00206B
:10DE200034AA0300D4AA030079BC030028B9030074
:10DE3000F84C002056B9030084B9030010B5124B0A
:10DE4000044612481B1ADB08012C4FEA03400DD090
:10DE5000022C12D040F003009CB90D490CF096FF43
:10DE600021460C48BDE8104003F0B0B90A4940F023
:10DE70000300BDE810400CF089BF084940F00100E4
:10DE8000F7E70749F5E700BFD4AA030034AA030067
:10DE900096B903000DDD0100C5B90300E9B903001F
:10DEA00012BA030008B5037853B940883B21FFF745
:10DEB00007FF28B1BDE80840024AE9210DF02EB95C
:10DEC00008BD00BFA0B80300014B1878704700BF21
:10DED000A84C002030B5A34B93B000241C700BF06D
:10DEE00011FD18B1A04A81210DF018F902A90120F5
:10DEF00002940BF0DFFD18B19B4A87210DF00EF95B
:10DF000002A80BF02BFE18B1974A8B210DF006F9F1
:10DF1000964B974A03F11001154653F8040B42F84B
:10DF2000040B8B42F9D14FF01024D4F8FC30C3F32A
:10DF30000723FF2B0ED0D4F8FC3013F47F4F09D009
:10DF40008B481CF070F9D4F880308A4A06212844A6
:10DF50001BF0B9FD884B8948894A8A49C01AC00814
:10DF60000004834B40F003000CF01DFF1123804898
:10DF70008DF804301CF057F901AC82B27C49204680
:10DF8000FFF7A6FE20B1784A40F295110DF0C6F8D1
:10DF90004FF47170FFF798FE20B1734A4FF4CC71C3
:10DFA0000DF0BCF80023ADF80C300C23ADF80830B0
:10DFB0001823ADF80A3002A8C823ADF80E30FFF7D9
:10DFC00085FE20B1684A4FF4D1710DF0A7F86E4874
:10DFD000002103F0F5FF20B1634A40F27F110DF0FC
:10DFE0009DF84022002102A81CF0C8F8674902A849
:10DFF00003F037F9664904A803F033F9654908A826
:10E0000003F02FF964490AA803F02BF906A8634925
:10E0100003F027F9012302A88DF8443004F0E8F852
:10E0200018B1514AD6210DF079F80023CDE9043317
:10E0300006938DF806305A4A5A4B1288ADF80420E0
:10E04000CDE9023406A9032305A8ADF8103019F074
:10E05000A1FF554802A9FEF7F9FA20B1424A4FF450
:10E06000FF710DF05BF80021102202A81CF086F869
:10E07000012000F0A3FF4D4B029301238DF8140003
:10E080008DF80C308DF81530494840F2011302A983
:10E09000ADF8163004F0A7F920B1334A40F26B21F5
:10E0A0000DF03CF8434B029302A808F0C5FC20B1E8
:10E0B0002D4A40F2EB110DF031F83F48FFF78CFC90
:10E0C000FEF7DEF9FFF7F6F9FEF734FE3B48FFF7FF
:10E0D000C5F81422002102A81CF050F84FF4702358
:10E0E0004FF42032CDE9032303238DF81430344B51
:10E0F000079302A8334B089302F0C6FE20B11A4AD8
:10E100004FF480710DF00AF80023CDE9023302A923
:10E11000012302208DF80830FFF7DEFD20B1124AFE
:10E1200040F2AD110CF0FAFF274A284801210DF00A
:10E13000B1FA18B10C4AB5210CF0F0FF06F0A6FEBA
:10E14000024660B922484FF4A0110DF0B5FA30B183
:10E15000054AB92113B0BDE830400CF0DFBF13B061
:10E1600030BD00BFC04C0020A0B8030030BA03008F
:10E170008C4C0020CAD8030034AA0300D4AA0300A0
:10E1800036BC030041BA0300C44C0020F8AB0300C6
:10E1900057BA03005ABA030093BA03003A4D00205D
:10E1A00033BC030049DD0100F84C0020E5E101002B
:10E1B000AC4C00203DDE010075CB0100DDE4010028
:10E1C000A5DE0100DDDC0100E9DC0100A8BC0300E4
:10E1D000D84C002001464FF6FE72014804F077B992
:10E1E000AC4C002008B50B7813B1012B12D008BD40
:10E1F0000F4B1048104A1149C01AC008000440F0E3
:10E2000003000CF0C7FD012000F0D8FEBDE8084077
:10E21000FFF7E0BF064B0748074A0949C01AC00884
:10E220000004BDE8084040F003000CF0B3BD00BF9F
:10E2300034AA0300D4AA030069BC03009CBA0300FB
:10E24000BFBA0300014B1878704700BFC04C0020D4
:10E2500008B50A4601460948FEF789FA60B1084B3D
:10E260000848094A0949C01AC008000440F00100E2
:10E270000CF090FD002008BD0120FCE7F84C0020C8
:10E2800034AA0300D4AA030046BC0300E3BA030087
:10E29000054B10B50246044619880320FFF712FD0E
:10E2A00008B9024B1C7010BD5C3B0020C14C002023
:10E2B000F0B56D4B00221A700388222B87B00446FC
:10E2C0000D4600F0B1800DD8112B14D0212B00F099
:10E2D0008E80102B30D02946204607B0BDE8F04094
:10E2E00003F092BA3B2B6BD0562B75D0262BF2D174
:10E2F000FEF7FAF8EFE75D4B5D485E49C01AC008CB
:10E30000000440F0030003900CF040FD237A5A49CA
:10E3100003980093594AA3880CF04FFD584B4FF6D1
:10E32000FF721A80FEF7E0F8A088FFF7C1F82946CF
:10E330002046FEF7CFFBCEE7514B8288514F1A8023
:10E340000420FFF7A5FF4FF4FA7647F001074FF4DA
:10E350007A40B847013EFAD1204607F0C1FB444E4F
:10E36000424B4949F61AF608360446F0030003907A
:10E370000CF00CFD0223454A454903988DF81430F2
:10E380008DF815300CF006FDA088FFF791F805A96F
:10E39000A088FFF79FFC294607462046FEF79AFB18
:10E3A000A088FFF707FC002F95D038460EF006F93D
:10E3B000324A3849034646F001000CF0F4FC8AE783
:10E3C00080881321FFF77CFC002884D0324A40F279
:10E3D00039110CF0A3FE7EE780881321FFF770FC53
:10E3E00000283FF478AF2C4A4FF4A071F1E71F4B9F
:10E3F0001F4E2A49F61AF608360446F003000CF0C0
:10E40000C5FC0223A0888DF8143005A98DF81530BD
:10E41000FFF760FC024600283FF45DAF204946F05C
:10E4200001000CF0B7FC56E7437A104A1048267AF0
:10E430001C49801AC0081C4A0004013B40F003003C
:10E44000002E18BF0A46062B0AD8DFE803F00B049B
:10E450000407090904000D4B1449AEE7144BFBE710
:10E46000144BF9E7144BF7E7A84C002034AA03003B
:10E47000D4AA030037BB030045BB03008BBC0300D9
:10E480005C3B0020A0BC03007EBB030030BB03004C
:10E4900089BB0300A1BB0300A0B80300C6BB0300F7
:10E4A000DABB030012BB030009BB030000BC03007E
:10E4B0002ABB03001BBB030023BB0300014B93F9E2
:10E4C00000007047C14C0020FEF7D2BF13460A4639
:10E4D00001460148FEF71EB9F84C002007B503239A
:10E4E00001220DF1070100208DF80730FFF7EEFF44
:10E4F00003B05DF804FB000010B5234B234C244A05
:10E50000E41AE4082404022844F0030422D0D9B118
:10E51000204B1B78C3B120461F490CF03BFC032065
:10E5200001F090FC01F0E4FC02282BD101F066FC24
:10E53000012827D12046164A18490CF02BFC03204D
:10E54000BDE8104001F09CBD204615490CF022FCAE
:10E550000220E5E769B1134B1B7853B112492046FD
:10E560000CF018FC032001F0D7FB012001F0C6FCE1
:10E57000D8E70E4920460CF00DFC012001F0CCFB41
:10E580000020F3E70420DBE734AA0300DCAA030041
:10E59000F4C00300364D0020ACBC030026BD0300D0
:10E5A000CABC0300344D0020E9BC030007BD0300D2
:10E5B00070B5012903788AB004464FF00000CDE918
:10E5C00008000D4640F01781212B8DF8203014D81B
:10E5D000212B21D8DFE803F04358636A7782B0B972
:10E5E000B9202020202020209E2020202020202014
:10E5F0002020202020202020B5BB502B00F0DA80E6
:10E6000017D8312BBA4CBB4E00F0B180402B00F034
:10E61000C280302B00F0A980B64BB548B64AB74946
:10E62000C01AC008000440F002000CF0B3FB002543
:10E6300043E0702B00F0C380802B00F0CD80602B76
:10E64000EAD10A4664230DF11501142012F004FDED
:10E6500000286ED0AA4AB1210CF060FD69E0A94CF7
:10E66000A44AA3482388A849801AC008013300049B
:10E670009BB2A14A238040F003000CF094FB238856
:10E680008DF821301B0A0EE00C238DF82130032376
:10E690008DF8223006238DF8243004250DE0022168
:10E6A0008DF8211007238DF8223072E002238DF8B7
:10E6B000213011238DF823300325691C08A8FFF7AA
:10E6C000C7FD0AB070BD4FF01023D3F8FC305A1EBE
:10E6D000534253418DF821300123E4E74FF01023DA
:10E6E0008348D3F88040834B834A8849C01AC008C6
:10E6F0000004234640F003000CF055FB230E8DF878
:10E700002130230C8DF82230230A8DF823308DF828
:10E710002440C2E7774A76487D4B7E491B788DF8C6
:10E720001530801AC0080004734A40F003000CF052
:10E730003AFB9DF8153001E0754B1B788DF82130C0
:10E7400003E010F099FB8DF821000125B5E710F0EA
:10E7500099FB030A8DF821008DF82230030C000E7E
:10E760008DF823308DF8240097E70378FFDE002230
:10E77000A01B13788DF8213053788DF82230C00813
:10E780001278009200045C4A634940F003000CF0E8
:10E7900014FB022591E7FFF791FEA41BE408240473
:10E7A00003468DF82100544A5C4944F003000CF004
:10E7B000FAFA82E7FEF754FE8DF821007DE7642225
:10E7C0000DF1160111F0D2FF18B14D4AB7210CF02E
:10E7D000A5FCBDF8163053E706A812F0D7FD9DF84A
:10E7E0001E301B09092B8DF815308DF821308CBF98
:10E7F0000023012357E7502B6CD83F2B15D8122B41
:10E800003CD9202B3A4A3B4800F01881212B00F0DC
:10E810002581384B3648384A4149C01AC00800049F
:10E8200040F002000CF0B6FA4BE7403B102BF0D85A
:10E8300001A252F823F000BF7FEA0100ABEA010019
:10E84000CBEA010013E80100FDEA010031EB010011
:10E8500055EB010013E8010013E8010013E8010083
:10E8600013E8010013E8010013E8010013E80100B8
:10E8700013E8010013E8010087EB0100122BC8D850
:10E8800001A252F823F000BF79E9010013E801006A
:10E8900013E8010013E8010013E8010013E8010088
:10E8A000BBE90100CFE90100C3E6010003EA010072
:10E8B00013E8010013E8010013E8010013E8010068
:10E8C00013E8010013E8010013E801001FEA01004A
:10E8D00099E90100F02B00F05A8123D8802B00F039
:10E8E0007E81902B95D1A178607801F067FB90E74D
:10E8F000DCAA030034AA03000CC1030032BE0300EB
:10E90000EFBD0300384D002059BD030070BD03006A
:10E91000354D002088BD0300A9BD0300D3BD030011
:10E92000A7C00300FE2B00F04D81FF2B7FF471AFD9
:10E93000B4F80130ADF816304DF6AD6293427FF475
:10E94000C0AE03297FF4BDAEA84DFFF71BF83224FB
:10E9500045F001054FF47A40A847013CFAD1A44B99
:10E96000A448A54AA549C01AC008000440F0030005
:10E970000CF010FA204622E1A14AB4F801309D487B
:10E9800013809B4A9F49801AC00800049A4A40F0AD
:10E9900003000CF008FA94E6954B9648964A9A497B
:10E9A000C01AC008000440F003000CF0F3F9974AC5
:10E9B000D42190200CF0B2FB83E66178944B0039AF
:10E9C00018BF012119700120FFF796FD79E6884BE9
:10E9D0008848894A8F49C01AC008A3780093000468
:10E9E000637840F003000CF0E8F9A1786078003912
:10E9F00018BF012101F0AEFA01F082FA01460220AF
:10EA0000E2E77B4B7B487C4A8349C01AC00800047C
:10EA100040F003000CF0BEF901F0F6F951E6744B3A
:10EA20007448754A7D49C01AC008000440F00300CC
:10EA30000CF0B0F9607801F0E9F942E6101A94F9A7
:10EA400001406D4A7649C0080004234640F00300A7
:10EA50000CF0A9F9204610F003FA32E6D4F8014090
:10EA60007049101AC00824BA0004634A234640F0D3
:10EA700003000CF098F9204610F0F8F921E694F91B
:10EA8000013003931846FFF703FC5A4C584A039B86
:10EA9000A41AE408584A240418B9634944F003004E
:10EAA00077E7624944F0010073E7514B5148524AFD
:10EAB0005F49C01AC0080004637840F003000CF0FE
:10EAC00072F96078FEF798FDFBE5494B49484A4AE0
:10EAD0005849C01AE3780193A3780093C008000452
:10EAE000637840F003000CF074F994F9032094F972
:10EAF000021094F90100FEF76BFDE2E53C4B3D4846
:10EB0000B4F80150B4F803403B4A4B49C01A6DBAFF
:10EB100064BAC008ADB2A4B2000400942B4640F021
:10EB200003000CF04AF92146284601F070FAC8E5C6
:10EB30002F4B3048304A4149C01AC008000463785E
:10EB400040F003000CF02FF96278A11C0220FEF7C0
:10EB500063FDB6E5264B2748B4F80150B4F80360CE
:10EB60003749254AC01A6DBA76BAC008ADB2B6B2F6
:10EB7000000440F0030000962B460CF01EF93146CD
:10EB8000284601F047FA6078FEF760FC99E5B4F892
:10EB90000130ADF816304BF6EF6293427FF491AD41
:10EBA00003297FF48EAD124B1248134A2549C01A2F
:10EBB000C008000440F003000CF0ECF8012000F065
:10EBC00057FA7EE5FEF7DEFE094B0A481E49C01AD9
:10EBD000C008000440F003000CF0D8F871E560783C
:10EBE0000830C0B200F0E8FB6BE500BF30C10300A5
:10EBF00034AA0300DCAA03000CC103008EC003008A
:10EC0000384D00206ABE030084BE0300EFBD030040
:10EC1000354D00209DBE0300BBBE0300DBBE0300DC
:10EC2000F7BE03001BBF030042BF030066BF030023
:10EC300091BF0300B8BF0300E5BF030013C003008A
:10EC40003BC0030066C003007FC00300034B0146C6
:10EC5000187010B90120FFF74FBC7047364D0020E7
:10EC6000034B0146187010B90220FFF745BC7047EE
:10EC7000344D0020704732DF704733DF70470000AB
:10EC800010B50B4C2368A3F58833A3F5B87347F28E
:10EC90003052934205D80123C8223221032011F0BB
:10ECA00025FB236803F5CC531A33236010BD00BF46
:10ECB000A44D0020000000002DE9F041072800F2DB
:10ECC000D480DFE800F004111618141423CB764822
:10ECD000764B774A7749C01AC0080004BDE8F04176
:10ECE00040F003000CF056B8734B01221A70BDE8D7
:10ECF000F081724BF9E7724B01221A70714B1B784D
:10ED0000032BF4D1BDE8F04110F02EBE6E4E01236E
:10ED100033703378002BEAD013F020F907EE900A15
:10ED2000F8EEE77A17EE900A19F016FF56A3D3E92A
:10ED3000002319F003FD19F029FF19F00DFF044617
:10ED400002460B460D460020604919F0F3FC0246CE
:10ED50000B462046294619F08DFD19F017FF19F0D2
:10ED6000FBFE41EC100B1AF007FA49A3D3E900238C
:10ED700051EC100B19F0BCFB19F008FF19F0ECFE78
:10ED800002460B4644A1D1E9000119F073FD44A3EA
:10ED9000D3E9002319F0CEFC19F0F8FE9FED4C7A70
:10EDA0004C4C07EE900AF4EEC77AF1EE10FA17D544
:10EDB00020683D4C19F0D0FE474B002219F0BEFCF4
:10EDC00019F090FE03463948444A4549241AE4089C
:10EDD000240444F003000BF0E6FF0023337086E7C1
:10EDE000DFF81081206094ED007AD8ED007A3D4F75
:10EDF000B4EEE77AF1EE10FA08DC94ED007AD7ED84
:10EE0000007AB4EEE77AF1EE10FAE6D52068264DE6
:10EE100019F0A2FE304B002219F090FC19F062FEAE
:10EE2000034622482D4A30492D1AED082D0445F09D
:10EE300003000BF0B8FF94ED000A11F079FD94ED9A
:10EE4000007AD4ED007AF5EE006A37EE267A77EE96
:10EE5000E67A88ED007AC7ED007ABEE7234B0122FF
:10EE6000BDE8F0411A7013F043B8104B0E4C104A35
:10EE70001F49E41AE4082404034644F00200BDE8F4
:10EE8000F0410BF090BF00BFCDCCCCCCCCB80E3F46
:10EE9000641161A153AC2640000000000068AA4044
:10EEA0006666666666127140ECAA030034AA030027
:10EEB0009EC903004CC103009A4D0020884D0020DC
:10EEC000904D0020994D0020A94D00200000F03FFA
:10EED00000C079C4683B002000408F4090C9030007
:10EEE00062C10300743B0020A0C10300A84D0020B4
:10EEF000DAC103006C3B0020042813B5044626D970
:10EF0000431F012B06D80020124B1B5D012B01D1A2
:10EF1000FFF7DCFA072C18D10E4BDB79012B14D14B
:10EF200001A9684610F05EFE78B99DED017ADDED2D
:10EF3000007ABDEEC77AFDEEE77A17EE103A19B205
:10EF400017EE903A18B2FEF721FB02B010BD012077
:10EF5000DAE700BF914D0020024B800143F001032E
:10EF6000184700BFE0CA030010B504464FF47A709A
:10EF7000FFF7F2FF013CF9D110BD0000012805D0D8
:10EF8000022805D030B90320FFF7A0BA13F010B85B
:10EF900013F06EB80548064B064A0749C01AC00868
:10EFA000000440F001000BF0F5BE00BFECAA030026
:10EFB00034AA0300C6C90300F3C1030010B511F061
:10EFC000E7FE084C084A2070084823780849801A50
:10EFD000C0080004074A40F003000BF0E4FE20786C
:10EFE00010BD00BF643B002034AA0300ECAA03005C
:10EFF0001DC203007FCA0300052810B50AD91548B1
:10F00000154B164A1649C01AC008000440F001000A
:10F010000BF0C0FE134C2368B3F5A02F18D04FF4AB
:10F02000A023114823600CF093FB20B10F4A4FF44A
:10F03000CA710CF073F821680B4800220CF03CFBFD
:10F0400030B1BDE81040094A40F297110CF066B8A3
:10F0500010BD00BFECAA030034AA03005CCA030081
:10F0600034C20300703B0020444D002063C2030003
:10F07000F7B5002304468DF80530ADF806300528B5
:10F0800000F27581DFE810F006005400A000AC002B
:10F09000F0003101BB4D2B78002B44D0BA4BBB485C
:10F0A000BB4ABC49C01AC008000440F003000BF082
:10F0B00071FE11F051FC20B1B74A4FF4D7710CF03A
:10F0C0002DF80BF0FDFC0028FBD164220DF10601A8
:10F0D0001D2011F04BFB002840F0A980BDF8061060
:10F0E0001D2041F0800111F051FB002840F09F806D
:10F0F000642301220DF10501102011F0ADFF00285D
:10F1000040F095809DF80510642241F00301102025
:10F1100011F086FF002840F08A8028706420FFF7F5
:10F120001BFFFFF7AAFD2046FFF766FF00207EE0E9
:10F13000944E3378012BF6D0934B944D944A9749D3
:10F14000ED1AED082D0445F003000BF023FE11F03D
:10F1500003FC074670B10DF031FA8D4A9049034621
:10F1600045F001000BF01FFE8B4A40F2CB113846F0
:10F170000BF0D4FF0BF0A4FC0028FBD164220DF1AE
:10F1800006011D2011F0F2FA002850D1BDF806103A
:10F190001D2041F0800111F0F9FA002847D16423C5
:10F1A00001220DF10501102011F056FF00283ED17B
:10F1B0009DF80510642241F00201102011F030FF8B
:10F1C000A8BB01233370A9E770486F4B704A75499B
:10F1D000C01AC008000440F003000BF0DBFDA2E7FA
:10F1E000684D2B78032B9ED0674B6848684A6E4960
:10F1F000C01AC008000440F003000BF0CBFD012052
:10F20000FFF739FD64220DF10601BA2011F0AEFAC4
:10F2100068B9BDF90630BDF80610002B09DA642381
:10F2200001220DF10501102011F016FF48B103B0C5
:10F23000F0BD41F40041BA2011F0A8FA0028EED048
:10F24000F5E79DF80510880605D5032364202B708B
:10F25000FFF782FE67E7642241F02001102011F0E1
:10F26000DFFE0028F1D0E2E7464D2B78042B3FF477
:10F270005AAF454B4548464A4C49C01AC00800049D
:10F2800040F003000BF086FD0120FFF7F4FC642240
:10F290000DF10601BA2011F069FA0028C7D1BDF9B5
:10F2A0000630BDF80610002B0EDA642301220DF1A2
:10F2B0000501102011F0D0FE0028B8D19DF80510EE
:10F2C0008A0609D40423C1E741F40041BA2011F0B1
:10F2D0005DFA0028E9D0AAE7642201F0DF011020DE
:10F2E00011F09EFE0028EDD0A1E7264D2B78052BCE
:10F2F0003FF419AF244B2548254A2D49C01AC008B0
:10F30000000440F003000BF045FD0020FFF7B3FCC4
:10F3100064220DF10601BA2011F028FA002886D1E6
:10F32000BDF90630BDF80610002B0FDB6423012267
:10F330000DF10501102011F08FFE00287FF477AF4A
:10F340009DF805108B0609D405237FE7C1F30E0154
:10F35000BA2011F01BFA0028E8D068E7642201F017
:10F36000DF01102011F05CFE0028EDD05FE70748B8
:10F37000054B074A0F49C01AC008000440F00100BD
:10F380002BE700BF783B002034AA0300ECAA03005F
:10F3900039CA0300A3C2030063C20300CFC2030043
:10F3A00000C3030030C303005FC303008BC303002B
:10F3B000BAC30300E8C3030070B5AB4EAB4C88B0D2
:10F3C000054604A810F088FF122D00F23D81DFE809
:10F3D00015F013002C003E0065007C00A300D50052
:10F3E000B700F100FD000501100114011F01F30039
:10F3F00023012C01310136019D4B9E489E4A9F49B5
:10F40000C01AC008000440F003000BF0C3FC012543
:10F410000023CDE900354FF49672F0234FF4FA71D2
:10F42000062010F0D1FE08B070BD914B9148924A71
:10F430009349C01AC008000440F003000BF0AAFC76
:10F440003C21062008B0BDE8704010F093BFFEF7E5
:10F45000F9FE884B884A8B49044685481B1ADB080D
:10F460001B0443F0030003900BF094FC022C4DD0DE
:10F47000032C60D0012C039809D100230424CDE98A
:10F480000034F0234FF4C87264210320C9E77A4A9C
:10F490007D4908B0BDE870400BF07CBC724B1B7816
:10F4A00003F0FF04002BBED110F040FE704B7148FA
:10F4B000714A7649C01AC008000440F003000BF0FE
:10F4C00069FC0423CDE90043DBE73378002BAAD1A4
:10F4D0000120FFF773FD0A280BD894ED007AF0EEB7
:10F4E0000C7AB4EEE77AF1EE10FA4FF006053FF52C
:10F4F00068AF5F4B5F48604A6549C01AC0080004A6
:10F5000040F003000BF046FC10F010FE0023042036
:10F51000CDE900303C23B5E7534B1B78002B82D15B
:10F520005448534B544A5B49C01AC008000440F089
:10F5300003000BF02FFC08B0BDE8704010F0F6BDE2
:10F54000494B1A78002A7FF46EAFDB7803F0FF0492
:10F55000002BF0D1464B4748474A4F49C01AC008D4
:10F56000000440F003000BF015FC0423CDE9004338
:10F5700040F6B832F0236421012052E73A4B1A7862
:10F58000002A7FF450AFDB7803F0FF04002BD2D1C8
:10F59000374B3848384A4149C01AC008000440F087
:10F5A00003000BF0F7FB0423CDE900434FF4C872CE
:10F5B0003C23E0E710F09EFF00230120CDE900305E
:10F5C0004FF496723C234FF4FA712AE710F0AEFD27
:10F5D000022008B0BDE8704010F0D6BD0023012124
:10F5E000CDE900314FF496723C234FF4FA710220BA
:10F5F00017E710F09BFD0420EBE700230122CDE983
:10F6000000324FF4FA713C234FF49672042008E75D
:10F6100010F08CFD0120DCE703236422114618461C
:10F6200008B0BDE8704010F061BE642203231146AB
:10F630000520F5E76422032311460620F0E7642243
:10F64000032311460720EBE709480A4C0A4A1449EC
:10F65000241AE40824042B4644F0020008B0BDE854
:10F6600070400BF0A0BB00BF844D0020603B002029
:10F6700034AA0300ECAA03001FCA030017C4030046
:10F6800034C4030051C4030072C4030089C40300DE
:10F69000AEC40300D3C40300F0C403000FC50300CD
:10F6A00032C503002DE9FF416F4D704C09212846FA
:10F6B00012F0D6FB6E4A6F490095A41AE4082404A0
:10F6C00044F0030403466C4A20460BF076FB6B4A79
:10F6D0006B496C48242312F059F912F0B9FB002849
:10F6E00000F0B480684E10F0FFFC0023337073709C
:10F6F000B370F37011F010FD18B1644A9C210BF047
:10F700000DFD002018F0C2FC6420FFF72DFC604BBB
:10F71000604F00221A809A805A8064233B7011F057
:10F72000ABFA20B9594AA82108200BF0F7FC524A3D
:10F7300059495A4D20460BF02DFB0120FFF73EFCA6
:10F74000574B02A84FF0010883F8008011F01EFE0D
:10F75000029B2B60BDF80C30AB809DF80E304A49FF
:10F76000AB71284611F098FF3378D3B1AB79424A98
:10F770004C4903F00C0320460BF015FBAB793E4AD5
:10F78000494903F0F00320460BF00DFBA87900F087
:10F79000F00011F087FE7378002B5BD00020FFF79C
:10F7A0000BFE012012F08EFB11F0D4FD11F05CF87D
:10F7B0003E4A3F4801210BF06DFF18B1334AC72183
:10F7C0000BF0ACFC3B4A3C4801210BF063FF18B145
:10F7D0002E4ACB210BF0A2FC384800224FF4A02186
:10F7E0000BF06AFF18B1294ACE210BF097FC344880
:10F7F0000FF0C8F920B9254AD12108200BF08EFC62
:10F800001D4A3049304E20460BF0C4FA05253046DB
:10F8100010F020F940B910F0C9F8013D6420FFF75D
:10F82000A3FB15F0FF05F2D1284A294920460BF029
:10F83000B1FA284B01221A70274B00221A700BF0E4
:10F840003FF90028FBD104B0BDE8F0810520FFF7A7
:10F850008BFB42E74046FFF7AFFD3B785F2BA0D81C
:10F8600011F0E8FD9DE700BF3A4D0020ECAA03002F
:10F8700034AA03004BC50300DAC90300B5E802004F
:10F8800035EB0200B9EC0100844D002063C2030097
:10F890008A4D0020643B002065C503009B4D00207D
:10F8A000884D00207AC50300AAC5030081EC010041
:10F8B000ECCA0300DDF80100E8CA0300444D002053
:10F8C0007DEF0100D0C50300F9EE01007FC9030000
:10F8D000E4C50300994D0020904D00201FB5254C34
:10F8E000204611F075FB0120FFF768FB0A2839D884
:10F8F00094ED007AF0EE0C7AB4EEE77AF1EE10FABD
:10F9000030D5FEF79FFC03280CBF07200620FFF729
:10F9100053FD12F029FB184C11F04EFA684611F015
:10F9200035FD009B2360BDF80430A3809DF80630B0
:10F93000A37102A811F02AFD104B11489DF80E404A
:10F94000104A1149C01AC00824090004234640F097
:10F9500003000BF028FA0A2C0AD904B0BDE81040C5
:10F9600010F0E4BB094B1B78002BD2D00020CEE76F
:10F9700004B010BD603B00209B4D002034AA030062
:10F98000ECAA0300AEC90300FCC50300844D0020AF
:10F990002DE9F047AC4C237888B01BB10FF0FCF98F
:10F9A00000232370A94F3B78002B00F0D580A84C92
:10F9B000A84D02A811F0EAFC029B2360BDF80C30B0
:10F9C000A3809DF80E30A37128680590C6B2C0F3DD
:10F9D0000729C0F3074A4FEA10682946204611F06C
:10F9E0005BFE23799A0754D5A07900F0F00011F05E
:10F9F00059FDB8F1000F18D1EB78B3B1964B974889
:10FA0000974A9849C01AC008000440F003000BF060
:10FA1000C1F9A37903F0F003B02B04D0C02B00F0A0
:10FA20000781A02B01D111F005FDBAF1000F0CD117
:10FA3000AB7853B18948884B894A8B49C01AC008B2
:10FA4000000440F003000BF0A5F96B78B9F1000F4A
:10FA500000F03181EBB9814B7F4A8449A3EB020866
:10FA60004FEAD8084FEA084848F003087C4A404665
:10FA70000BF090F92B7863B10120FFF79DFC7C4BD4
:10FA80001B785F2B40F21481754A7A4940460BF08F
:10FA900081F923795B071BD56F4B7048704A764913
:10FAA000C01AC008A379000440F0030003F00C035F
:10FAB00001900BF078F901982B78002E00F011815D
:10FAC00033B9674A6D490BF065F90220FFF774FC02
:10FAD00023785D071CD5604B604D614A6849ED1A7B
:10FAE000ED082D0445F0030528460BF053F93222AA
:10FAF00011460523062010F0F9FB002241F69A1169
:10FB000060480BF0D9FD564A5F4928460BF042F990
:10FB1000237818071BD5504B50485C4C504A5C4921
:10FB2000C01AC008000440F003000BF033F923684A
:10FB3000A3F58833A3F5B87347F23052934201D846
:10FB4000FDF720FF00234F4823600BF001FE12F069
:10FB500077F908B100233B704E4D2B78002B5ED017
:10FB60004D4C06A810F0C0FE6288BDF81A30534014
:10FB700059060FD5384B3948484A4949C01AC00878
:10FB8000000440F003000BF005F910F0E5FE002042
:10FB900010F044FF0698364EBDF81C30206000205F
:10FBA000A380FFF70BFA3078FEF714FB23881A06C0
:10FBB00007D5218821F080010904090C002010F0EC
:10FBC000E5FD2388DB0507D5218821F48071090430
:10FBD000090C002010F0DAFD324C204611F0F8F943
:10FBE000206818F0B9FF16A3D3E9002318F05EFFD0
:10FBF00098B1194A194833782B49801AC008000473
:10FC0000264A40F003000BF0CEF8124B1A7822B9C6
:10FC10005B7813B90120FFF72BFA00232B70234BDD
:10FC20001B78052B6AD108B0BDE8F047FDF7DEBFB1
:10FC3000607900F0070011F0E1FCF6E6AFF3008018
:10FC4000CDCCCCCCCCCC0840434D00209A4D0020EC
:10FC50009B4D0020844D002034AA0300ECAA030031
:10FC6000BACA030014C6030031C6030049C6030024
:10FC7000643B00205EC6030089C60300D4C60300AF
:10FC800029C70300644D00204CC70300A44D002089
:10FC90006FC70300884D00208A4D00209ECA0300D4
:10FCA00093C70300603B0020DBC70300783B0020C4
:10FCB00011F0C0FBEDE6002B3FF4EBAE2B78002BF0
:10FCC0003FF4E7AE0F4B1048104A1149C01AC00864
:10FCD000000440F003000BF05DF84846FFF76CFBB2
:10FCE000D7E6002B3FF4F4AE084A0A490BF052F86D
:10FCF0006B780BB13046E9E60120E7E608B0BDE8D5
:10FD0000F08700BF34AA0300ECAA0300BACA0300BC
:10FD100074C6030000C70300F7B52F4B2F4D304EBC
:10FD20000090ED1AED082D0433782E4A2E49044632
:10FD300045F003000BF041F83378A34216D0337836
:10FD400003F0FF0733B929480FF084FE0123337015
:10FD5000274B1F70032C38D8DFE804F0020A172E57
:10FD60000FF024FE08B100200DE0307001200AE001
:10FD700001200FF07FFD0028F5D10FF07BFD00285A
:10FD8000F1D10120307003B0F0BD01200FF072FD01
:10FD900048B10CF013FC134A1649034645F0010024
:10FDA0000BF001F8DFE741F288310FF04BFC00283F
:10FDB000EFD102233370D9E741F2883101200FF0EF
:10FDC00041FC0028CFD10323F4E7064A0A4945F055
:10FDD00001000AF0DFFFC9E734AA0300ECAA030020
:10FDE000994D002005CA030009C80300F9EE01007F
:10FDF000904D002039C803005DC80300014B1878FE
:10FE0000704700BF994D00200FF012BD10B50C4B8C
:10FE10001B78032B12D14FF47A74444342F22833F7
:10FE20009C420BDCB4F57A7F08DB01200FF022FD49
:10FE3000A1B20120BDE810400FF004BC10BD00BF0E
:10FE4000994D002070B5234E33789842054615D061
:10FE5000022815D00DD9032834D01F4B1F48204A43
:10FE60002049C01AC008000440F001000AF092FFC7
:10FE700004E0002011F018F998B93570012011E064
:10FE8000002011F011F9044668B1134B1348144ACD
:10FE90001549C01AC0080004234640F001000AF0CA
:10FEA00082FF002070BD0EF0A3FF0028E5D00A4BB2
:10FEB0000A4D0B4A0D49ED1AED082D04034645F095
:10FEC0000100ECE7012011F0EFF80028E9D10EF075
:10FED000DBFED1E7AA4D002034AA0300ECAA030000
:10FEE000EBC90300F3C1030083C80300A5C80300E6
:10FEF000014B1878704700BFAA4D00200FF088BB57
:10FF000038B5082201210C480C4C19F057FD0C4B58
:10FF10000C4A0D49E41AE408051E4FEA04440B4B51
:10FF200044F0030008BF1346094A0AF03CFF281EAC
:10FF300018BF012038BD00BF914D0020ECAA03007E
:10FF400034AA0300C6C80300CCC80300C1C803001C
:10FF500069C9030013B50346104C1148241AE4087C
:10FF6000072B4FEA04440FD80E4A0F48D1540F4ACA
:10FF7000002918BF024600920D490E4A44F00300C2
:10FF80000AF01BFF02B010BD0A4A0B4944F0010001
:10FF900002B0BDE810400AF006BF00BFECAA0300A3
:10FFA00034AA0300914D0020D8C80300DFC8030025
:10FFB000E7C803004BC9030004C9030037B5044672
:10FFC0000D4610F0B3F854EA050318D0012D0BD0FC
:10FFD000022D16D09DB9C8220F231146204603B02A
:10FFE000BDE8304010F082B900230422CDE9003290
:10FFF0006421F0234FF4C872204610F0E5F803B0F6
:020000022000DC
:1000000030BD204603B0BDE8304010F0BDB80FF061
:100010001DBE000073B5124B01911C78114B0646B2
:100020001D78FEF751FA002814BF0A220122012090
:100030000092FFF707FF0120FFF76EFEEDB2DDE94A
:1000400000213046FDF714FBFDF74EFB2846FFF775
:10005000F9FEE4B2204602B0BDE87040FFF75CBE96
:10006000994D0020AA4D0020034B00221A70034B2B
:1000700001221A70704700BFAB4D0020AC4D00202C
:10008000014B1870704700BFAC4D002038B5264CAE
:10009000264D23782A789A4217D02548254A801A77
:1000A000C008013B0004032B37D8DFE803F0020F40
:1000B0001F2C214A214940F003000AF06BFE022365
:1000C0002370FCF705FA23782B7038BD1A4A1C49B7
:1000D00040F003000AF05EFE0320FEF7C9FF012096
:1000E000FFF7B0FE0120FFF717FEECE7124A1549B3
:1000F00040F003000AF04EFE0420FEF7B9FF052091
:10010000FFF75AF9DFE70C4A0F4940F003000AF005
:1001100041FE0520FEF7ACFFD5E7074A0B4940F04A
:1001200002000AF037FECEE7AC4D0020AB4D0020B8
:10013000F4AA030034AA0300ACCB0300F0CA030006
:1001400015CB030037CB03005CCB030080CB03004F
:100150003FDF704708B50B480B4B0C49C01AC0086D
:10016000000440F003000AF011FEBFF34F8F08496E
:10017000084BCA6802F4E0621343CB60BFF34F8FB1
:1001800000BFFDE784AA030034AA0300C2CB03002A
:1001900000ED00E00400FA050A46014601480AF0B5
:1001A000BDBF00BFEFBEADDE70B55B4A07CA86B00B
:1001B00003AB83E807005949184608F033F918B132
:1001C000574AB5210AF0AAFF564808F099F918B124
:1001D000534AB6210AF0A2FF08F072F90CF008FAAF
:1001E00018B14F4AC2210AF099FF4FF40041002094
:1001F0000AF0D8FB18B14A4A6B210AF08FFF0AF0C7
:10020000FFFA17F0B3FE484803210AF001FE002868
:1002100003DA43497420FFF7BFFF444B444C454980
:1002200001225A71444B454AE41AE408240444F07C
:10023000030420460AF0AEFD0AF042FC0028FBD180
:100240000BF0F8F918B1364A51210AF067FF3C4B20
:1002500001933C4B0093394A3B4B3C4920460AF002
:10026000B8FD0AF02DFC0028FBD10BF0CBFF18B134
:100270002B4A7F210AF052FF304A354920460AF0C6
:1002800089FD0AF01DFC0028FBD1FFF70BFA2B4A71
:10029000304920460AF07EFD0AF012FC0028FBD10E
:1002A000FDF718FE254A2C4920460AF073FD0AF096
:1002B00007FC0028FBD1FFF7D7FE204A274920463C
:1002C0000AF068FD0AF0FCFB0028FBD10120FFF7D3
:1002D0003FFF18B1124AC6210AF020FF114E204DEF
:1002E000FFF7D4FEFFF754FB307808F03FF90AF02F
:1002F000E7FB0028FBD10AF0E3FB08B90BF098FFFD
:10030000FDF7E2FD0028EBD0204629460AF03EFD2D
:100310000120FEF7ADFEE3E708CD03005501020022
:10032000E6CB0300AD4D0020C4AB03007C3B0020B6
:1003300084AA030019CC030034AA030014CD0300DF
:1003400057BA030093BA030030BA030038CC030055
:1003500059CC030080CC0300A0CC0300C2CC030026
:10036000E6CC03006DDF704779DF70477DDF7047B3
:1003700064DF70472DE9F04F85B000250E9CBDF875
:100380003CB0B4F800A00191074690461E46A9462D
:100390003A884A450DDC45B12388013BA3EB0A03AB
:1003A0009BB2FF2B3AD806F80A30002005B0BDE812
:1003B000F08F7A6852F82900039000220DF10B01AA
:1003C00003A8FFF7D5FF0028F0D19DF80B20424588
:1003D00021D12288002D14BF0020022002EB080149
:1003E000014459451ADC3DB9013292B2019B228089
:1003F000B35422880132228022880DF10B0132444D
:1004000003A8FFF7B5FF0028D0D121889DF80B2065
:100410000A442280012509F10109B9E70C20C5E74A
:100420002DE9F341089FBDF824801546CDE90078F9
:10043000022204461E46FFF79DFF50B933461022A4
:1004400029462046CDE9087802B0BDE8F041FFF723
:1004500091BF02B0BDE8F0812DE9F04F002317886D
:10046000138090F82D3085B006460D4614465BB3D8
:10047000082F01D80C2028E102A8FFF773FF0028FD
:1004800040F023812388DDF809100822EA542388EC
:1004900001339BB21B222380EA54238801339BB291
:1004A000EA182380E950BDF80D30938023889DF829
:1004B000082006339BB212F0FE0218BF01222380EF
:1004C000EA54238801332380B378FBB123880433B3
:1004D000BB42CFD802A8FFF747FF002840F0F580C5
:1004E00023880322EA54238801339BB219222380F4
:1004F000EA542388BDF8082001339BB2E918238011
:10050000EA54120A4A70238802332380F2789AB19F
:100510002388D91CB942ADD80221E954238801337C
:100520009BB201212380E95423880B449BB2238092
:10053000EA5423880B4423807268AAB12388D91C0B
:10054000B94297D8022192F90020E9542388013357
:100550009BB20A212380E954238801339BB2238074
:10056000EA542388013323803389002B40F0A18093
:10057000338A5BB1CDE900472B460722032106F100
:100580001000FFF74DFF002840F09F80338B5BB1D8
:10059000CDE900472B461522142106F11800FFF77C
:1005A0003FFF002840F09180326A002A40F090809E
:1005B000D6F82480B8F1000F30D0B8F80430218884
:1005C000981C8A1C0244BA423FF654AFFE283FF6FC
:1005D00051AF03336B54238801339BB2FF22238036
:1005E000EA54238801339BB22380B8F80020EA54F0
:1005F000E918120A4A702088023080B22080B8F8C8
:1006000004205AB1D8F8081000296BD0284419F0FA
:10061000B1FB2388B8F804201344238096F82C30CB
:10062000002B40F09880307800284ED03388012B82
:1006300058D0228802F1020CBC453FF61BAF0128BE
:1006400005D17378023313449F42FFF413AF023F86
:10065000BF1ABFB202A905EB0C00ADF80870FFF796
:1006600085FE90BB3178BDF80830022900F0B980D2
:1006700072789A4202D39F4280F0B180012940F003
:10068000B280974293B2C0F0AE80ADF80830082136
:10069000BDF80830FE2B3FF6EDAE22880133AB5497
:1006A0002288013292B22280A954228813442380E6
:1006B0000BE0CDE900472B460622022106F1080097
:1006C000FFF7AEFE00283FF453AF05B0BDE8F08F52
:1006D000B4F800C00CF10603BB423FF6CBAE118864
:1006E000052901D80720F0E76FF4486E01EB0E03EF
:1006F0009BB24FF27D3E7345F4D95388052BF1D957
:100700006FF44860181880B27045EBD94FF6FF704F
:10071000814201D09942E5D8052305F80C302388A1
:1007200001339BB212212380E954238801339BB209
:1007300023801188E954E818090A4170238802339C
:100740009BB223805288EA54E918120A4A7023881F
:10075000023323802CE7B36A002BC3D04FF000088C
:100760004FF00C0A4FF0160BB16A5FFA88F20AFBE1
:1007700002F201EB0209B9F80430981CFE283FF69A
:1007800079AE208803332B54238801339BB2238016
:1007900005F803B0238801339BB223808A5AEA54B8
:1007A000E918120A4A702088023080B22080B9F815
:1007B00004205AB1D9F80810002993D0284419F020
:1007C000D9FA2388B9F804201344238096F82C2002
:1007D00008F101085FFA88F39A42C5D823E7092196
:1007E00056E79F42FBD2ADF8087050E730B5C8B16C
:1007F000F2B10024651C8D4206DA1588A54212D894
:1008000005196D789D420ED1A14211D9005D48B104
:10081000013880B230B10234A3B210FA84F4A1429C
:1008200006DB138030BD055D01352C44A4B2E1E741
:100830000020F7E713B513460022ADF806200DF1AE
:1008400006020446FFF7D2FF10B1BDF80630E018EB
:1008500002B010BD72DF704773DF704738B50122F8
:1008600004460D46B0F8D810D0F8D400FFF7E2FFE8
:1008700000B1057004F13C0204F1D40104F154000C
:10088000BDE83840FFF7E6BF80F830107047F8B594
:1008900004460F46002966D0002864D091F87A30CB
:1008A0001BB191F89830002B5FD1D7F8A030042B02
:1008B0005BD0D7F89C30042B57D04FF0000C84F855
:1008C00002C007F178060FCE251D0FC50FCE0FC54C
:1008D00096E8070085E8070084F830C0D7F8A43010
:1008E0006363D7F8A830A36304F1D4024FF6FF7313
:1008F000C4F8EAC0A4F8E830C4F8E420C4F8EDC0B5
:1009000022780AB984F85430224604F155011F2593
:10091000C4F8D410384622F8D85FFFF79DFD08BB15
:10092000224604F19301C4F8DC1007F13C0022F8E0
:10093000E05FFFF791FDA8B9A369A4F848304FF430
:1009400080730125A4F8503063692064014684F85F
:100950003C50636404F13C0204F15400FFF77AFF59
:1009600000B92570F8BD0E20FCE70720FAE7F8B5BE
:10097000077804460D46002F00F0F6800023C0F8EB
:10098000EA30C0F8ED30C388817000F1EA060BB19F
:10099000012903D0E37943B1022D06D1636BABB1DA
:1009A000012284F8F1200820984704F1EB0304F1B8
:1009B000F10113F8012B12B99942FAD117466B1EB7
:1009C000032B4ED8DFE803F0050B0F1284F8F1304B
:1009D000EBE7A3791BB194F8243003B95FB9E3794D
:1009E0000BB1002F3FD1237A002B3ED1637A002B2D
:1009F0000CBF00250425636BA570002B37D0033D89
:100A0000012D34D8627992B394F8F2207ABB84F83D
:100A1000F420012284F8F3200720984704F13C05D4
:100A200018220021284619F0A9FBE26A531E012171
:100A3000022B94F8243084F83C1028BF0A4684F82E
:100A4000512033B1A36A5A1E022A28BF0B4684F8EC
:100A50005230A378042B1CD8DFE803F06D0D23334C
:100A600053000025C7E70225C5E70325C3E7002398
:100A700084F8F330D2E7012384F831300023C4E94D
:100A80001063C4F8E430022384F83C308023A4F8D7
:100A90004830A378002B52D1636B002B60D100202B
:100AA0005DE0022384F83130032384F83C3023696D
:100AB000A4F848300023C4F8E430E3682664636493
:100AC000E7E763696364A369A4F848306379B3B165
:100AD00094F8F2309BB994F8F43083B1022384F88F
:100AE000503004212046FFF7B9FE0028D1D105235C
:100AF00084F8313004F1D403C4F8E430C9E70323A7
:100B0000F6E7E3696364236AA4F84830637983B144
:100B100094F8F2306BB994F8F43053B1022384F8AE
:100B2000503004212046FFF799FE0028B1D106235A
:100B3000DEE70423DCE7002384F83130A9E7D4F8AA
:100B4000E4102A4604F15400FFF784FE38B994F803
:100B5000301094F85400FFF77FFE00289CD0F8BDB9
:100B600094F8310098479AE70820F8E70388112B9A
:100B700010B50C460AD0262B1FD0102B05D1C37BF5
:100B8000012B02D18388A1F8E83010BD00228388B0
:100B900081F8F220B1F8E8209A42F6D10B79002BC7
:100BA000F3D101212046FFF7E2FE0028EDD0A36B30
:100BB000002BEAD0BDE810401847037A013B012B17
:100BC000E3D8897805230131B1FBF3F303EB830309
:100BD000C91AC9B2E6E7F0B50E4685B01546044617
:100BE00000284ED00378002B49D009B9002A48D0FC
:100BF00010220021684619F0C1FABEB95DBB04F1AC
:100C0000D4056E462A4604AF334603CBBB42106080
:100C100051601E4602F10802F6D1C4F8E4500022E9
:100C2000294604F15400FFF715FE12E0D4F8E43031
:100C30001B6804F155018B4208BF04F174011F23A6
:100C400001AA30460091ADF80430FFF705FC0028FA
:100C5000D4D005B0F0BDD4F8E4309B6804F1930122
:100C60008B4208BF04F1B2011F2303AA2846029158
:100C7000ADF80C30FFF7F0FB0028C0D0E9E7082002
:100C8000E7E70E20E5E775DF704776DF70477ADF2C
:100C900070477BDF70470000034B1A8882420CBF0D
:100CA00018460020704700BFCC4D0020024B9B69C6
:100CB00003B11847704700BFB04D002073B585B22F
:100CC0002846FFF7E9FF044638B3174E027A337B14
:100CD0009A420CD200F10A012846FFF7D4FFF0B186
:100CE00011281AD002B0BDE87040FFF7DFBF002323
:100CF0000372337C43B13B212846FFF7C6FF30F037
:100D0000080301D0FFF7D2FF736933B100228DF8D9
:100D10000420ADF8065001A8984702B070BD237AB0
:100D200001332372F9E700BFB04D002037B50B4601
:100D3000497A0F4A79B9D2E901141D7A0246002D89
:100D400018BF214658680AF0B7FC78B103B0BDE877
:100D50003040FFF7ABBF00211972536933B1012254
:100D6000ADF806008DF8042001A8984703B030BD07
:100D7000B04D00204B8802889A4212D842889A428D
:100D80000FD380888B8840F2F311884294BF021AF7
:100D9000421A9A4205D80844984234BF00200120E4
:100DA00070470020704700000388122B70B5014681
:100DB00059D004D8102B1ED0112B44D070BD502B0D
:100DC000FCD12F4BC288DB899A42F7D1038A022BD0
:100DD000F4D186883046FFF75FFF05460028EDD046
:100DE00001F1120000F02FFA38BB68680AF0B0FC7D
:100DF0000028E3D009E0C37B012BDFD14FF6FF7061
:100E0000FFF74AFF054620B90420BDE87040FFF710
:100E10004DBF1C4A8E880680002303721368C0F8F9
:100E20000A305368C0F80E3010310A30FFF7A2FFC5
:100E3000134B6872DB89002BC0D129463046BDE8D0
:100E40007040FFF773BF8088FFF726FF0446002835
:100E5000B4D040680AF07CFC08B1FFF727FF4FF6DA
:100E6000FF732380AAE786883046FFF715FF054603
:100E70000028A3D008310A30FFF77CFF6872DCE756
:100E8000B04D0020E04D0020F8B5064648B30546B9
:100E90000FCD154F3C460FC495E8070084E80700C6
:100EA0003068124C3C60B0B1FFF7F1FEC0B9326857
:100EB00013682360536863600D480E4A4FF6FF7352
:100EC00003800D4B40F8043F00210AF0E3FB0028AB
:100ED00018BF032004E02046FFF7DBFE0028EBD01C
:100EE000F8BD0E20FCE700BFB04D0020E04D002013
:100EF000CC4D0020BD0C0200E84D002008B5064B8B
:100F000058680AF025FC042804D030F0080018BF07
:100F1000032008BD1120FCE7CC4D0020F7B5174693
:100F200001900E4691B1019C6CB100252C462946DA
:100F300001A80AF04CFD18B13946A8B2B0470134F7
:100F40000135142DF3D1204603B0F0BD0C46FAE76D
:100F50000AB10AF01BBD0AF030BD73B50191019CC6
:100F600006466CB100252C46294601A80AF02FFD43
:100F700018B106EB440301349D800135142DF3D1E3
:100F80003046346002B070BD2DE9F0430388848898
:100F9000103B8DB00A2B20D8DFE803F006381F1F66
:100FA0001F1F1F1F1F5D3F002F4FBB68DB430093B8
:100FB000796868460AF070FD009901A8FFF7CDFF37
:100FC0000DF108080026019B9E4209D3132C14D969
:100FD000264AF02104200AF0A1F80DB0BDE8F08304
:100FE00038F8029B00250135494607EB85000AF0D9
:100FF000E4FC1E2DF7D10136E5E721461C480AF036
:10100000C5FC1C4821460AF0C1FCE6E71848214609
:101010000DB0BDE8F0430AF0D0BC027A16483F2A72
:101020004FEA1215214694BF00220122FFF790FFDC
:10103000022D94BF0022012210482146FFF788FFAD
:10104000012D0F4894BF0022012221460DB0BDE8BA
:10105000F043FFF77DBF037A002BBED1427A0648EA
:10106000C2F3C0022146F1E7084E002022CD030062
:10107000104E00200C4E0020204E00201C4E002060
:10108000184E00201328014602D802480AF09FBCDF
:10109000002070470C4E0020FFF7F4BF07B5019009
:1010A000FFF7F0FF019930B104480AF090FC0028E6
:1010B00014BF0220012003B05DF804FB104E002095
:1010C00007B50190FFF7DEFF019928B1044803B08E
:1010D0005DF804EB0AF07BBC03B05DF804FB00BFD5
:1010E000184E002007B50190FFF7CCFF019928B1F9
:1010F000044803B05DF804EB0AF069BC03B05DF886
:1011000004FB00BF1C4E002007B50190FFF7BAFF9B
:10111000019928B1044803B05DF804EB0AF057BC0C
:1011200003B05DF804FB00BF204E002010B5034B58
:1011300004465968FFF711FF204610BD084E0020F5
:1011400010B50446FFF79EFF002814BF2046142068
:1011500010BD000008B5182102480AF041FCC0B2D9
:1011600008BD00BF084E002070B50A4E0546304647
:101170000C460AF02CFC58B12846FFF783FF38B123
:101180000734294606EB8400BDE870400AF01FBC16
:10119000002070BD084E0020F8B50B4F05463846BC
:1011A0000C4616460AF013FC60B12846FFF76AFFAA
:1011B00040B107343246294607EB8400BDE8F840C9
:1011C000FFF7C6BEF8BD00BF084E0020034B9B686A
:1011D0000A4601461846FFF7A1BE00BF084E002090
:1011E00073B50B4D019204460E46014628460AF09F
:1011F000EEFB50B1063405EB8404019A6068314679
:1012000002B0BDE87040FFF789BE02B070BD00BFFC
:10121000084E0020AADF7047ABDF7047002301387B
:101220000B70042806D8DFE800F00306080A0C005B
:1012300011230B7070472123FBE73123F9E71223B9
:10124000F7E72223F5E7008800F0010070470088E7
:10125000C0F3400070470B7803704B784370022056
:10126000704738B5044608460D4618F0DCFF656047
:10127000208038BDF0B58B7891B00C46012B38BF7B
:10128000012300278DF80E3005460B88607CADF8F1
:101290000C306946ADF800708DF80270FFF7BEFFA4
:1012A000A07C0DF10101FFF7B9FF1646237BE27B1D
:1012B000217D43EAC203227C43EA02139DF8022007
:1012C000B94222F0190203F0190314BF02210121CF
:1012D000134361F342031C22394609A88DF80230FA
:1012E00018F04CFF637B13F0300F14D00DF109019F
:1012F000E07CADF808708DF80A70FFF78FFF1123BE
:101300008DF808309DF80A30012102AA61F34203EA
:101310008DF80A300E92637B8DF82430A37B8DF814
:1013200025300023CDE90633089303AB0493A3884B
:10133000ADF81C30A368CDF814D01BB1E288ADF82D
:1013400018200893A36973B301A90022ADF8042003
:101350008A701A88ADF82C205A88ADF82E205A6869
:101360000D91187B0A92FFF759FFA3690DF1050152
:10137000587BFFF753FFA3699A7A197A41EAC201B1
:10138000DA7A9B7B41EA02119DF80620002B01F0DE
:10139000190122F0190214BF02230123114363F340
:1013A00042018DF80610E36903B10C93334604AA99
:1013B00009A92846FFF72EFF11B0F0BDF0B50C4685
:1013C00089B016461022054600210DEB020018F0E8
:1013D000D5FEA378A079012B38BF01238DF80A3000
:1013E00001AF2388ADF80830394602AB0393FFF70D
:1013F00015FFE0790DF10501FFF710FFE278637941
:10140000217A049743EAC203227943EA02139DF842
:101410000620002922F0190203F0190314BF02214B
:101420000121134361F342038DF806306389ADF85F
:101430001430A389ADF81630E389ADF81830324680
:101440002369079303A92846FFF7E6FE09B0F0BD1C
:1014500070B50546164608460AB90E2070BD002331
:101460001360002DF9D02B68002BF6D0EB8813F019
:1014700003040ED1FFF764FEC0B214280BD02B7901
:1014800083420AD9EA882B6800FB0230306020468C
:10149000E4E70720E2E70520E0E70420DEE79BDF42
:1014A00070479DDF70479EDF7047A1DF7047A3DF65
:1014B0007047AEDF704730B5048800239AB294427B
:1014C00006D9456835F813508D4203F10103F5D173
:1014D000104630BD8B6910B50C461988C82913D841
:1014E000023189B20AF020FE606078B1A169002360
:1014F00002220AF05BFEA26960681288E169022399
:101500000AF054FE002010BD0920FCE70420FAE791
:1015100010B50C46C98A14290AD80AF005FE606085
:1015200040B1E28AA16900230AF040FE002010BD0C
:101530000920FCE70420FAE7F0B58BB0044600224E
:10154000C068124E0DF106010CF06CFD142508B1B7
:101550000BB0F0BDBDF80630A76805FB037700228D
:1015600002A938460CF05EFD30B1E06800220DF1B2
:1015700006010CF057FDEAE79DF8083056F82330D5
:10158000002BECD003980AF0B9FDE8E780CD03000A
:10159000F0B5BDB00D46012202A906460CF042FD91
:1015A000044690B99DF80830052B4FD8DFE803F0CA
:1015B000030F1C24292EBDF81A20BDF81810284648
:1015C000FFF773FF0446112C40D13DB0F0BD0AA9CE
:1015D0000398BDF81E20089100230AF0FBFD06A920
:1015E0002846FFF764FFEDE7BDF818100DF11A0269
:1015F0002846FFF754FFE5E706A92846FFF751FF05
:10160000E0E706A92846FFF74EFFDBE70DF10604E9
:101610000AAB214603980993022200230AF0DAFD5F
:10162000BDF8062009990398089402230AF0D2FD18
:1016300006A92846BDF80670FFF73BFF04460028C0
:10164000C1D1BDF80630BB4218BF0C249DF808205C
:101650000A4B53F8223013B103980AF04FFD0022D1
:1016600002A930460CF0DEFC002CAED0049B002B0F
:10167000ABD005992A4620469847A6E780CD0300BF
:101680002DE9F8430F461446054620B94FF00E08E1
:101690004046BDE8F8830029F8D0FFF74DFF3B78BE
:1016A000052B5FD821462846FFF705FF2B8883428C
:1016B00058D014264643A86830440CF0A1FC0028FA
:1016C00055D03B78052B38D8DFE803F00311171EFF
:1016D000242A7A8A398A2046FFF7E7FE112846D065
:1016E00058B3BB684BB3F9682246984725E007F129
:1016F00010012046FFF7DBFEF0E7398A07F11202FE
:101700002046FFF7CCFEE9E707F110012046FFF77E
:10171000C8FEE3E707F110012046FFF7C4FEDDE74E
:10172000BB6907F110012046B3F80080FFF7C1FE46
:10173000D8B9BB691B88434502D14FF00008A7E721
:101740000C20CEE728690028A0D03946984780466B
:10175000A0B19DE73B7859F82330BBB178680AF017
:10176000CDFC13E04FF0070892E71128B9D1DFF85C
:1017700028903B7859F82330002BE3D1A8683946EC
:1017800030440CF0D7FB80460028E3D1A8682146FE
:101790003044FFF7FDFE7BE780CD0300F8B50D4632
:1017A000044678B3FFF7C8FE29462046FFF783FEBC
:1017B0002288824211D00020F8BD616831F81310F0
:1017C000814203F101030BD0208800234FF6FF76FE
:1017D0009AB282420BD30420EEE700234FF6FF704B
:1017E00099B28A42E9D820690AF086FCECE7616880
:1017F0005A0001EB43078A5AB24203F10103E7D1D1
:101800003D80D8E70E20D7E737B50C4608B301B3C3
:101810000588112D15D181882046FFF74CFE2388BD
:10182000ADF80600834214D0112D14D163684FF631
:10183000FF7223F810200DF10601E0680CF07AFB2E
:1018400007E0A5F130031F2BE5D9A5F150031F2BAD
:10185000E1D903B030BDA368142202FB0030FFF7CA
:1018600097FEF6E730B50B4B19680B4B00229142FF
:1018700001D1002009E09D788478A54206D11D8819
:101880000488A54202D1054B186830BD01320433EB
:10189000EDE700BF8C4E0020904E0020844E0020CB
:1018A0002DE9F84F90F8C6A24FF0760B04460AFBDC
:1018B0000B0088469146FFF7D5FF074668B3D4F87A
:1018C000CC52052D29D804EBC5165A46A6F8D2925B
:1018D0000BFB0A4106F5357018F04CFAB8F1000F11
:1018E000C6F84C730E4F14BF0023022386F8D03283
:1018F0003B6801359D42C4F8CC520ED104F53475D5
:101900000026EB6F284698473B6801369E4205F15A
:101910008005F6D30023C4F8CC32BDE8F88F00BFB1
:101920008C4E002030B5A1B004460D467C2200212B
:1019300001A818F023FC03238DF80430044BADF804
:1019400006501B6802940BB101A8984721B030BD26
:10195000844E00202DE9F041074691F8C602762317
:101960004FF00008A0B081F8C88200FB03100C46BD
:101970001546FFF777FF064660B17C22414601A875
:1019800018F0FCFB01238DF80430ADF806500297E7
:1019900001A8B0472946204620B0BDE8F041FFF736
:1019A000C1BF000030B504468BB00D462022002197
:1019B00002A818F0E3FB94F8C53294F8C61213B3EA
:1019C000013BDAB276234B43122000FB023323445F
:1019D0005B8A01339BB2ADF80430762303FB0141EF
:1019E0002A460B89ADF8063003238DF80830019B99
:1019F000CDE90543064B0493064B02A91868FFF78F
:101A00003FFE0BB030BD762303FB0143DB88E2E7EA
:101A100055190200A84E0020F0B5044689B02022D6
:101A20000D466846002118F0A9FB94F8C7321E4AFB
:101A300001331268DBB2934284F8C7324FF00002E0
:101A40002AD294F8C632194F84F8C5220133DBB28A
:101A5000762113FB01F057F8237084F8C63226185C
:101A600027504B433271E358CDF81230104B02939C
:101A70000222104B8DF800200122ADF810201868CA
:101A800003942A466946FFF7FBFD18B12A46214612
:101A9000FFF760FF09B0F0BD84F8C8222946204650
:101AA000FFF740FFF6E700BF8C4E0020904E00206D
:101AB00055190200A84E00202DE9F047044688B0D1
:101AC0000D46164600212022684618F057FB94F870
